:020000040800F2
:20000000D0060020411700085101000851010008510100085101000851010008510100086E
:20002000510100085101000851010008D90100085101000851010008510100085101000868
:200040005101000851010008510100085101000851010008510100085101000851010008D0
:200060005101000851010008510100085101000851010008510100085D210008992100081C
:200080005D21000899210008510100085101000851010008510100085101000851010008FC
:2000A000510100085101000851010008510100085101000851010008E9110008211F0008DA
:2000C000352A0008211F0008352A0008510100085101000851010008510100085101000848
:2000E000510100085101000851010008510100085101000851010008510100085101000830
:2001000051010008510100085101000851010008510100085101000851010008510100080F
:200120005101000851010008510100085101000851010008510100085101000851010008EF
:20014000510100085101000851010008254200082DE9F04F684600F0ABBE01B0BDE8F08FF1
:200160002DE9F14FC0F800D010468847009A00211160FFF7F2BF000038B5036804462BB329
:20018000EFF314839D0702D5114B186000DFEFF309814FF0FF330B600E4B8B61CB6903F004
:2001A0008073CB6122685007A2F1200544BF43F40073A2F1240528464FF0200248BFCB611C
:2001C00001F087F885F309880023236038BD00BFD00600205B01000810B5034C2068FFF760
:2001E000CBFF0023236010BDD006002003460144104610B5064C8B4200D110BD13F8012B2F
:2002000082EA102234F8122082EA002290B2F2E79E67000813B500230446ADF8063000F02C
:20022000B1F8022104F17C020DF1060000F0DAF802B010BDF8B54FF6FF750F4C0F4FB4F86F
:200240007C302646AB4208D12388AB4211D02378022B07D02046FFF7DDFF8034BC42EED1FF
:20026000002606E02A4680212046FFF7BFFF0028F0D13046F8BD00BF00F801080000020869
:20028000F8B5FFF7D7FF0446002868D04FF6FF730588ED1A18BF0125324B45220021184690
:2002A00000F0FEFF0A270346DF766FF047076FF03706DF770B27022246211E76072683F8EA
:2002C0002070502702704170C274FF21027501229E7683F82E600C2683F829702C2781705D
:2002E00042753C2083F833608F2683F82B706FF02F079875002083F834601B4E83F82D70C0
:2003000037683679DA75587683F8272083F82A0083F82C2083F82F2083F83020C3F835704F
:2003200083F83960588783F83C0083F83E2083F83F1083F8411083F8421083F8431083F88E
:20034000451075B16278022A0BD9462A28BF4622A11C981C023ABDE8F84000F06EBF054687
:200360009AE7F8BDD40600209E690008044AD36813F00103FBD13421D1601361704700BF72
:20038000002002400A4B1A6842F001021A601A6891070AD5074B1A69120641BF064A5A6085
:2003A00002F188325A60FFF7E1BF00BFEFE700BF00100240002002402301674508B5FFF7B5
:2003C000D5FF074B1A6942F002021A6158611A6942F040021A61BDE80840FFF7C7BF00BF70
:2003E0000020024070B50C461546FFF7BFFF094E2D1A0444844205EB000200D170BD3369DD
:2004000043F00103336130F8023B1380FFF7AEFFF0E700BF0020024030B1044B044A1B687D
:200420001070181FFFF7A8BE704700BF000000201C07002010B5084C0A462368191D216025
:2004400001461846FFF78CFE00222368043B2360024B18781A7010BD000000201C07002071
:2004600070B505460E46144600F0A2FF08B104F0010422463146284603F04EFABDE870403E
:20048000FFF7CABFF7B51C4601AB0F46154603F087FA064601982CB120603046FFF7BCFF96
:2004A00003B0F0BDA842F8D22A1A2146384400F0F7FEF2E708B503F003FBBDE80840FFF7B2
:2004C000ABBF08B503F093FBBDE80840FFF7A4BF08B503F0FBFCBDE80840FFF79DBF08B58B
:2004E00003F0DCFCBDE80840FFF796BF10B9024B187870470120704704000020044B1B78BE
:20050000DB075DBF034B9868C0F3402000207047040000200010014000207047F8B5094C57
:20052000094FA668094DFF21384600F037FBC0B2FF2805D0A368F31A23F07F43AB42F2D92C
:20054000F8BD00BF10E000E0003800401FAA440010B5084C204600F001FB4FF48052064B01
:200560002046FF211A6100F019FB2046BDE8104000F0F4BA00380040000C014070B50E463F
:20058000044690B300224FF40071FFF72FFE0546FFF7C4FFFF282AD13146174800F0F7FAF8
:2005A000FD2E26D0144800F0E2FA04F5007623461988114849BA023489B200F0E8FAA642F2
:2005C000F5D10D4800F0CAFA29460B4800F0DFFA094800F0D4FAFF21074800F0DFFA00F08A
:2005E0001F00431F5842584170BD0546D0E70020FAE70120F8E700BF003800402DE9F34196
:2006000004460D46224EDFF89080B768FF21214800F0C4FAC0B2FF2807D1B368FB1A23F0DC
:200620007F434345F2D900202FE0FE28FBD1194800F09DFA6619B6B24FF6FF71154800F0B3
:20064000ADFA030A04F8023BA3B2B34204F8010CF2D14FF6FF710F4800F0A0FA40BA0022E5
:200660002946ADF80400601BFFF7C0FD0221024601A8FFF7BBFD0446064800F06FFA054834
:2006800000F07DFAB4FA84F0400902B0BDE8F08110E000E0003800409FBB0D002DE9F04FBC
:2006A00006460C460325DFF8DCB085B00F0EC1F30748C1F30729320609D44FF080532F4A38
:2006C0001361FFF72BFFFF280BD0FF2006E000217720FFF7E3FF30F00103EED005B0BDE8B3
:2006E000F08F06F07F0302A88DF808300621002302468DF809708DF80A808DF80B908DF858
:200700000C40013911F0FF014FEA43032FD14FF0060A43F001031A488DF80D3012F8011B03
:20072000019200F034FA0AF1FF3313F0FF0A1448019AF3D14FF00A0A00F010FA104AFF214D
:20074000104600F02BFA0306014605D50AF1FF3313F0FF0A0A4AF2D111F0880FC8B2BDD015
:20076000013D15F0FF05B9D0FFF7F2FEA3E710F801CB8CEA03031BF80330C2E7000C0140AD
:2007800000380040EC6900082DE9F74F894615461E4600285BD1002B59D02F4F3B78DA07E0
:2007A00057D42E4B4FF003089A461A7812F0040F08BF6D02012E0ED129465820FFF76EFF36
:2007C000044680BBFE214846FFF7D8FE002838D1FFF7BEFE27E09AF800309B071DD1294670
:2007E0005920FFF75BFF0446E8B94B46B346FC2118460193FFF7C2FE18B1BBF1010B019BD9
:200800001CD1FD210020FFF7B9FE0028E0D0FFF79FFEBBF1000F06D115E03146D720FFF7AA
:200820003DFF0028DBD008F1FF3818F0FF08C1D13B78012443F001033B7004E003F50073CF
:20084000D5E7FFF785FE204603B0BDE8F08F0424F9E70324F7E700BF0400002028070020E7
:200860002DE9F043044685B0002840F0F180794D2B7843F00100784B28709B689A0540F11C
:20088000A680764E1322F3690C2143F48043F361734800F0ABFB0B220D21714800F0A6FB6C
:2008A00018220E216E4800F0A1FB0B220F216C4800F09CFB4FF45D736A4F7C6038463B6034
:2008C00000F04CF90A24FF213846013C00F066F914F0FF04F7D121464020FFF7DFFE0128F9
:2008E00001465BD17B20FFF7D9FE20F00407012F54D14FF4D5714820FFF7D0FE012869D195
:200900000427DFF86081FF21404600F047F9013FC0B240EA042417F0FF07A4B2F3D1C4F33C
:200920000804B4F5D57F39D14F4CDFF84481A7684FF08041E920FFF7B1FE014640BB7A20D4
:20094000FFF7ACFE50BBFF21464800F027F90446FF21444800F022F9FF21424800F01EF97C
:20096000FF21404800F01AF9230617D514F0400F14BF072203223D4B1A704FF4007150200D
:20098000FFF78CFE50B92B7823F001032B7005E0A368FB1A23F07F434345C9D9FFF7D8FDAA
:2009A0002978304F11F0010437D10A2000F06CFA4FF4517321464A203B60FFF76FFE18B9E2
:2009C00010216846FFF71AFEFFF7C2FD287805B0BDE8F0830223DFF894802146E92088F808
:2009E0000030FFF75BFE30F0010316BF88F80070E92741271C4CDFF87890D4F8088000215B
:200A00003846FFF74BFE0028B7D0A368A8EB030323F07F434B45F2D9C0E700233B60F369D5
:200A2000182223F48043F3610C210D4800F0DEFA18220D210A4800F0D9FA18220E210848CE
:200A400000F0D4FA18220F21054800F0CFFABDE70420BCE704000020001001400010024036
:200A6000000C01400038004010E000E0280700203F54890038B50C46D0B90E4D2B78DB07CE
:200A800014D4A9B94FF080520B4B1A61FFF746FDFF2808D00124FFF75BFD2B7843F00103A5
:200AA0002B70204638BDFFF753FDFAE70324F8E70424F6E704000020000C01402DE9F74F41
:200AC000894690461D46002840D1002B3ED0214E3378DA073CD4204B03271B785B0758BFF0
:200AE0004FEA4828012D8CBF4FF0520A4FF0510A41465046FFF7D2FD0446B8B94B46AB4680
:200B00004FF4007118460193FFF778FD18B1BBF1010B019B17D1012D03D900214C20FFF732
:200B2000BDFDFFF715FDBBF1000F08D0013F17F0FF07DDD10124337843F001033370204655
:200B400003B0BDE8F08F03F50073D9E70424F6E70324F4E70400002028070020836803F03B
:200B60008203022B01D1C368704700BFF6E708B5FFF7F4FF036843F40063036008BD08B5E3
:200B8000FFF7ECFF036823F40063036008BD83689B0701D5C160704700BFF8E783689A0702
:200BA00006D5C1608368DB07FCD5C06880B2704700BFF3E703688B4238BF1A700368013399
:200BC000036070472DE9F04F8046174687B01D464B1E02900093C118BA461AF8012B52B939
:200BE000029B8B4200F2FA801A700298A0EB080007B0BDE8F08F252A04D002A8FFF7DAFFF1
:200C00005746E9E7002634461CE0A2F16303152B26D8DFE803F072562525253E56252525A0
:200C20002525491125255B2558252511392A21D9582A15D144F4807444F0100436E055F8F7
:200C4000046BBA46574617F8012B782A08D8622ADBD8302A0BD0E9D8232A05D02A2AEED062
:200C600002A8FFF7A7FFB7E744F48064E9E744F40064E6E7A2F130063A4612F8013BA3F118
:200C800030000928DDD80A2000FB06361746303EF2E79AF80130682B06BF44F480540AF117
:200CA000020744F40054CCE744F00804E30455F8049B04F4007224D55FFA89F924F400740F
:200CC00032E044F4007444F00A04EFE755F8044B2644A6EB040A14F8012B52B9BAF1000F9C
:200CE0007FF77AAF202202A8FFF764FF0AF1FF3AF4E702A8FFF75EFFEBE755F8042BD2B232
:200D0000AEE7A00437D59AB30FFA89F9B9F1000FD4DA230505D52D2202A8FFF74BFF24F4FC
:200D20000074013EC9F1000960050FD504F01F0ABAF1080F02D0BAF1100F07D1302202A8A5
:200D4000FFF738FFBAF1100F18D0013E0DF10C0AB9F1000F18D130230DF10D0B8DF80C3095
:200D600014F4006F14BF30222022ABEB0A0327E01FFA89F9A2E7002AA0D0C7E7782202A83B
:200D8000FFF718FF023EE1E7D346174A14F4807F164808BF104604F01F02B9FBF2FC02FB8E
:200DA0001C9E10F80EE00BF801EBCE467245E146F3D9D5E702A80193FFF7FCFE019B013E11
:200DC000B342F7DBA30503D52D2202A8FFF7F2FED3453FF401AF1BF8012DF6E788459CBFAC
:200DE000009B08F8032000E73D7400082C7400080CB407B504AB53F8042B0193FFF7E2FEDE
:200E000003B05DF804EB02B070470000EFF3088181F30988022181F31488BFF36F8F104BC4
:200E200083F308880F4B104A9A605A6942F404725A615A6A42F4E0225A624FF07F42DA61E1
:200E40004FF47F021A62BFF34F8FBFF36F8F6FF07F42A3F54F635A6001221A60704700BFDB
:200E6000D002002000ED00E000000008054A936891685B1A23F07F43984202D9C01A0B463E
:200E8000F6E7704710E000E000EBC000FFF7EEBF42F228335843FFF7E9BF000072B6024B63
:200EA000024ADA60FEE700BF00ED00E00400FA0508B5EFF30383036A5B07EFF309830F4A7D
:200EC0004ABF243044302033904206D30C4A824203D920F0030082420BD80A4A934206D391
:200EE000094A9A4203D923F003039A4203D8FFF7D5FF0430EFE70433F7E700BFD00000207F
:200F0000D0020020D0020020D006002008B5FFF77DFF2F4B1B68C3F30313042B0CBF0122E2
:200F200000222C4B1A700AD12B4B20211A882B4B802A08BF4FF48062196008BF5A60122220
:200F4000274B1A60A3F580531A6842F480321A601A68910335D5234A5A601A6842F0807269
:200F60001A601A6892012ED55A6842F002025A605A6802F00C02082A27D11A6822F00102AA
:200F80001A600722DA6140F61D029A6101225A614FF08062144B5A604FF0443302F17052A0
:200FA00002F5843253601360C2F80434C2F80034C2F80438C2F80038BFF34F8FBFF36F8F56
:200FC00008BD00BFC4E700BFCBE700BFD0E700BF00ED00E029070020E0F7FF1F24000020E6
:200FE0000020024000C41D0000000140130914BF01234FF48033072903FA01F330B50361FA
:201000004FF00F0402F00F020AD9083945688B009C4025EA040402FA03F32343436030BD44
:20102000036889008C4023EA040402FA01F121430160F4E7064B074A1B68926803F07F407C
:201040001043834238BF00F17F40C043704700BF2C07002010E000E008B5FFF7EBFFC24393
:2010600003460448044940F8042B1944BDE8084000F04EB82C070020A0FD7F0010B500F0C3
:20108000A1F8094B094C9B68094944F8043B2046002200F037F8FFF7CDFF064901442046DB
:2010A000BDE8104000F034B810E000E02C07002059100008A0FD7F000C22114BB0F5803FC1
:2010C0001A600FDA0D284FF00702B8BF0D209A620C380122D8620A4B5A6100221A610D2213
:2010E0001A60704741F61F429A624FF4617290FBF2F04FF6FF723238904228BF1046E8E7AA
:20110000000800400123C0E90112C36070470000F8B504460D46EFF31186731EDBB23F2B82
:2011200002D9402383F31188E368154F012BF6B207D03A463B689C42D96814D1012311604C
:20114000E3602560FFF776FF3B680246281A0C4D6BB9E3602C603B68A34201D1FFF7ACFFE8
:2011600086F31188F8BD03F10C020B46E3E71968891A8142EDDA03F10C05DB68E8E700BF07
:201180004007002010B5EFF311835A1ED2B23F2A02D9402282F31188DAB2C368012B07D043
:2011A000074B19688842CC6805D11C600123C36082F3118810BD01F10C032146F2E700BFEA
:2011C000400700200022064B5A600122DA604022044B83F81E234FF080421A60704700BFC0
:2011E0000008004000E100E00022F8B501270B4B0B4E1A61346804B9F8BD2568FFF71AFF1B
:20120000281A0C2803DDBDE8F840FFF755BFE368E7603360D4E901309847EBE70008004085
:20122000400700202DE9F007B1E8F807A0E8F807203AF9D1BDE8F0077047F8B532F01F07AF
:2012400006460D46144610D040EA01039B070CD13A46FFF7E7FF3D44F31904F01F04013BCC
:201260002C44A54203D13046F8BD3346F7E715F8012B03F8012FF4E72DE9F007CDB24FF0B7
:2012800001346C432346254626462746A046A146A246A0E8F807203AFBD1BDE8F007704708
:2012A000F8B532F01F0506460F4614460CD083070AD12A46FFF7E0FF04F01F0472191444C0
:2012C000A24203D13046F8BD3246F8E702F8017BF6E7884230B405460C4602D230BCFFF780
:2012E000ACBF034614448218934202D1284630BC704714F8011D02F8011DF5E7034610B563
:2013000002449A4201D1002005E013F8010B11F8014B001BF5D010BD70B505460024A24243
:2013200001D1002006E02E5D0B5DF01A02D10134002EF4D170BD421E11F8013B02F8013FD1
:20134000002BF9D170470000014B1B685B6818472C00002070B50D4B0D4D04462B601B6875
:201360009847C2070DD50B4B1B78012B09D103F077F830B9084E204633689847C30758BF92
:201380002E602046BDE87040FFF7DEBF840000202C000020EC1700200800002010B4034C23
:2013A0002468A468A44610BC604700BF2C000020014B1B689B6918472C00002070B5054C39
:2013C000054E064D2046FEF7F9FF33681C44AC42F8D370BD008000082800002000F8010862
:2013E00008B502F00FFE054B1B78184300F00303032B0CBF0120C0F3800008BDBA190020F8
:20140000F8B5054600244FF6FF760B4F05206400FFF73EFDA4B24DB102F0F4FD3B780343B2
:2014200008BF44F00104B442F0D1F8BDFFF7D8FF0443A4B2F7E700BFBA19002008B5084B36
:201440001B78012B05D0022B09D1BDE8084001F0F3BB00F00DFFBDE8084000F011BF08BDF7
:20146000F017002008B50A4A03461178012905D002290BD1BDE8084001F022BC0022062058
:2014800000F0BEFEBDE8084000F0FABE08BD00BFF0170020F8B50C4601460E48FFF70AF8CC
:2014A0004FF6FF750C4F0CB92846F8BDB4F5006F264628BF4FF400660023324639460548B5
:2014C000FEF7E0FF2A4631463846FEF78FFEA41B0546E8E7440700206409002038B50D4C3A
:2014E0004FF480710C4A04F63E2304F53460FFF77FFC04F5226104F54460FEF7F0FF94F880
:201500003E5A2DB904F54460FEF7DBFF284638BD0225FBE7440700204E7400082DE9F047F3
:201520007A4D7B4B7B4A88B005F5226105F54460FEF7CEFF95F83E3A93B9012385F8743CA2
:201540007549764B734A01F50870FEF7C1FF95F83E3A002B55D0FFF7C1FF85F8740C05E03F
:20156000FFF7BCFF012885F8740CE9D095F8744C002C42D16A48FFF775FF6A490122A1F5C7
:201580003460FEF76DFFE96860480439FEF792FF042223465D480DEB0201FEF773FFBDF84F
:2015A00004305BBA44F246629BB293422BD044F25962934260D12746EE6885F8744CE4B953
:2015C000A6F58063B3F5BA3F14D8B30712D1B9194E480439FEF76EFF234604224B4805A98C
:2015E000FEF750FFBDF814305BBA44F259629BB2934243D0032485F8744C002008B0BDE892
:20160000F0870120A9E721464048FEF753FF0C223E4802A92346FEF735FF0422424902A820
:20162000FFF77AFE18B1002637460324C5E70C220399049B043102FB0311FFF72BFFB8B9BD
:2016400003993248FEF736FF2646304F049B9E42E9D200230C22384605A9FEF713FF9DF80C
:201660001430012B02D1DDE90676A6E70136EDE7264627460424A0E72646D5E72B48FFF734
:20168000F1FE31463846FFF705FF00283BD12848FFF7E8FEFEF776FEFFF790FE012325486E
:2016A00085F8753CFFF7DEFE39461848FEF702FFB046DFF88490DFF884A0B8F5006F4746D0
:2016C00028BF4FF4006700233A4651460F48FEF7D9FE4A4639465046FEF784FE3A465146E9
:2016E0004846FFF70BFE60B9B8EB0708B944E4D14FF6FF7231461048FEF778FD00283FF496
:201700007AAF052477E7042475E700BF4407002051740008DD7400086411002063740008D1
:201720007174000884120020757400087A7400087E74000882740008008000086409002012
:2017400070B55E485E4986B0884203D05D4A121AFFF773FD5C485D4D00212A1AFFF7A0FDC5
:201760005B4A5C49D36943F0C053D3610B6843F480730B604DF6AD61574B5868884225D1EE
:201780004BF6EF619C68601A44424441002199605960D1612A68514E2960B24218D0E4B2FE
:2017A0004F4B504A1360504A1360FFF7AFFBFFF765FC02F057FCB4B9FFF712FE98B92E60E7
:2017C000BFF34F8FBFF36F8FFFF768FB0024DDE73CB9464B464A1B681268591C01D09D464C
:2017E00090470124DCE7434CC820FFF751FBFEF747FD00F097F82578012D35D0022D02D1E7
:201800003D48FFF72FFE0120FFF718FE02F006FE3A4802F017FE0020FFF7F2FD0120FFF758
:20182000EFFD2178012905D14FF0FF320020344B00F0E6FC3348FFF715FE334C334E04F6C4
:20184000786531460122284602F042F80146F0B92F48FEF7EFFD0346E0B994F8743C53BB03
:201860000020FFF7EBFDAFE72A4901A8FFF763FD002201AB1146104600F0C2FC00222946A8
:201880001046254B00F0BCFC00F0FAFCBBE702F0DFFDD6E7214A142101A8FFF7A9FA01A83C
:2018A000FFF7E0FD94F8753C0BB1FFF787FD0020FFF7A6FDD4E71A4AEDE700BF0000002057
:2018C000F4740008CC000020D0060020002100200010024000700040006C00402CBAB539F3
:2018E000EFBEADDED0020020D00000200080000804800008F017002086740008BA130020A4
:201900009A740008A574000844070020DD7400081D1500088A74000899670008A97400085F
:20192000AF74000800232DE9F047214E86B0214D214901A8B6F81F702B704FF00209FFF7CE
:20194000FAFCDFF87C80DFF87CA0D8F8084000F0A7FC40B10123194901A82B70FFF7EBFC88
:2019600006B0BDE8F087B6F825309B070FD0002FF6DD6420FFF78CFAD8F80830E41A42F2D5
:20198000283324F07F44B4FBF3F43F1BDDE701F0CDF985F8009001F049F952460346142154
:2019A00001A8FFF725FA01F041F90328DFD1D7E7D4060020F0170020B5740008BA7400081D
:2019C00010E000E0C37400080121064B1B68DB785A0903F01F0301FA03F30349403241F84F
:2019E00022307047F417002000E100E070B504460F49104A8D6812680F4E536934EA030325
:201A000001D1012008E0506910F45F4005D00020536923F45F43536170BD8B68EB1A23F039
:201A20007F43B342E9D90122044B1A71F4E700BF10E000E030000020905F0100F41700205B
:201A4000084B1B681A6842F400721A601A6812F40072FBD10449097811B11A6001221A609F
:201A6000704700BF3000002029070020024B1B6818610420FFF7BABF3000002010B5044615
:201A8000FFF7F4FF44F00400FFF7F0FF2046BDE81040FFF7EBBF30B580248B18994200F14D
:201AA000020001D1500030BD00F8024C11F8015B00F8015CF2E70000F0B585B004460B46C7
:201AC0006F46284D05F1100C3E4628686968083503C665453746F7D1032A20D1A34220D1FC
:201AE00003F180010A4603F5807512F8010D04AE06EB101010F8100C934205F8010DF4D190
:201B0000803411F8013D04A803F00F03034413F8103C914204F8013DF3D105B0F0BD012A1D
:201B200010D12546184603F1800610F8011B04AF01F00F01394411F8101C864205F8011B16
:201B4000F3D180349207E8D503F1800113F8012B04A800EB121212F8102C8B4204F8012B15
:201B6000F4D1DAE7EC6A00082DE9F341244D06466F790DF10408022F3AD101222149FFF7C9
:201B80008AFFAB793418402B18BF0027EB798DF80470503B8DF805300DF106022B7A204630
:201BA000002B14BFAF23AE2302F8013B4146A2EB0802FFF770FF144B0444B3F82530DB0643
:201BC00005D5204605221149FFF765FF0444402304F8013B0E4BA01B1B685A6842F4007206
:201BE0005A601A6842F480721A6002B0BDE8F08108220849FFF74FFF42463418CEE700BF38
:201C0000F4170020FC6A0008D4060020056B000830000020FD6A00082DE9F04747F28313DE
:201C200047F603183149324C0A790D68022A18BF984694F80C310133DBB2012B84F80C310C
:201C40000AD104206B6843F490536B602B6843F4A0632B60BDE8F087237A94F80D61003B87
:201C600018BF0123237346F0400363731323022AA3730CBF24232223E37394F80E3100276D
:201C800043F03003237402234FF0280A637404F20F1904F1120348FA07F101F00701184621
:201CA00032460AFB0191FFF7C8FA034604370C2F3344F0D194F8AF3104F1120006EB4606B6
:201CC00030442BB994F8B0310133DBB284F8B031022384F80C316B68064A43F400736B60AB
:201CE0002B68801A43F480732B60B3E730000020F4170020001800202DE9F8433C4B054692
:201D00009A799C46202A20D03A4B47F28312197947F60313022918BF13464FF6FF71364ACC
:201D2000B2F842208A4204D032490979002908BF1346002613F0080414BF02220122164408
:201D4000AE4205DCC3F30F13F4E747F21073E4E79CF8B12103F007039A4241DD4FF0000ECE
:201D600028214FF00C092548254A01FB03018CF88CE08CF80CE0A0F581709CF80D3100F141
:201D800080079E4512D34FF0060808FB03F8C8F17F0842460021FFF783FA42460021384626
:201DA000FFF77EFA0CB3701BBDE8F88311F80E300630203B5F2B28BF0E2309FB0323D3F8DC
:201DC00000800EF1010E40F8068CB3F8048020F8028C53F8068F9B88C0F87A80BB80CCE733
:201DE0004FF4807200210748DAE72046DCE700BFF417002030000020D406002003190020E4
:201E0000346B00080018002010B5154A1424136892F80C211349012A16D19A79013A04FB9A
:201E20000212D06040F283129B79013B04FB03139A60FFF7FFF8BDE8104000F5DB1101F57F
:201E4000BA510948FFF764B95A79013A04FB0212D0605B7940F29312013B04FB0313E7E7F8
:201E6000F417002000000240A819002070B5054601200C46FFF7BAFD08B9002070BD064B25
:201E800044EA45041E6802203461FFF7AFFD0028F3D00120B369F1E73000002008B50A4B8A
:201EA00000211A68136843F480731360FFF7DEFF08B9002008BD0020FFF7D8FD0028F8D013
:201EC000FFF7BEFD0120F5E73000002030B5134B21F00F041B7A1A4353B22243046843EAA8
:201EE0000111651C056022700468C9B2651C056042F0040525700468651C0560227003686C
:201F00005A1C0260197003685A1C026041F004021A7003685A1C0260197030BDF417002078
:201F20002DE9F341874F3D686A69D0070CD5864B93F80C1111BB93F8AF315B00DBB201298F
:201F400008BF43F001032B61910741BFAB696B6823F400736B60520755D500226B6823F494
:201F600000736B60784B83F80C2193F8AF211C4632B9FFF765FDFFF74FFE42E01023DCE75D
:201F800093F8C421D979002A76D058799A79022844D1B1EBD20F4FEAD20005D1421CDA71E5
:201FA00093F8C531002BE4D1E379834207D90023E37194F8B0310133DBB284F8B031E6795E
:201FC000624D7008FFF798FE05F1800706F00102E0B101280CBF8021002138460132294473
:201FE000FFF76AFDFFF72CFD5848FFF7BDFD2B18802239461846FFF720F9721C8030E271B3
:20200000401BFFF701FF02B0BDE8F081002AE9D1802229463846FFF710F9E3E7B1EB121F9E
:202020004FEA121005D1421CDA7193F8C531002B9FD1E579A8420DD20023E37194F8B0319F
:202040000133DBB284F8B031FFF7FAFC3F48FFF78BFDD6E72846FFF74FFE40B101280CBF1E
:2020600080210021394803220144FFF725FD01354FF48070E571C4E793F8B12103F10C06CE
:202080008A42019606D1511CD97193F8C531002B7FF46FAFE379934211D90023E37194F8F4
:2020A000B0310133DBB284F8B031FFF7C9FC6B6843F400736B602B6843F480732B6042F2A2
:2020C000031347F2107594F8B121022A18BF1D464FF6FF721E4BB3F84230934203D03A79D1
:2020E000002A08BF1D4694F8078001A84FEA88031D416B075FBF2822164B05F0070502FB75
:202100000535154B4FF000024344997F48BF002541F08001FFF7DAFE002794F80D319F42C7
:2021200005D3019808F10103E371801B69E73DB115F8011B012201A8FFF7C8FE0137ECE748
:202140002021F7E730000020F417002000180020D406002003190020EC6A000814200B4B8F
:202160000B491A685379013B00FB03130020986053790122013B9B0002FA03F34B60054BA5
:202180001A68536843F4007353607047F4170020000002403000002010B51424114A12487F
:2021A00011688B79013B04FB030300249C608B790121013B9B0001FA03F343600B4B1B68D7
:2021C000596821F480515960196821F480611960D37B82F8C631FFF71FFDBDE81040FFF7F3
:2021E00013BE00BFF41700200000024030000020A02220210148FFF753B800BF031900204A
:20220000F0B52826194C06FB010194F80D5104F20F1432EA220228BF2A462144EFF31186EB
:20222000741EE4B2CF2C02D9D02484F311885FFA86FC1A44D41A13F8017B27B1A84200F13B
:2022400001060CDB30460B192024401A5A1A002A02DD4218954206DC8CF31188F0BD30468D
:2022600001F8017BE6E701F8014BEFE7F4170020002818BF0820014B18727047F4170020F7
:20228000064A92F8B011C9B292F8B0315B1ADBB2012B00D9704700BFF6E700BFF417002079
:2022A0002DE9F04FD04C4FF0010994F8C53194F8AF71CE4E1F43002384F8C6312371E3713A
:2022C00084F80C31CA4BDFF858831B78C94D022B0BBFC94BC94B336033600CBFC84BC94B9E
:2022E00087B023602168D8F81C200B78284609FA03F31343C8F81C3016224978FEF776FEE1
:202300002368162299782846FEF770FE0A20FEF7BBFD2168AB684A78D340DB0726D5AB68E0
:202320008A78D340D80721D44FF4803303FA02F22A614A780A2093402B61FEF7A5FD2368D5
:202340000A205B7809FA03F32B61FEF79DFD23680A209B7809FA03F32B61FEF795FD22680E
:20236000AB685278D340DB0748BFAB68002F00F0618123680E2259789E48FEF737FE236849
:202380000E2299789B48FEF731FE0023D6F80090C9F800302423C9F80430B423C9F81C3063
:2023A0002523C9F820300123C9F80030002F00F0B581D02001252168934B0A791A4482F882
:2023C00000030A79510902F01F0205FA02F2603143F8212022681279510902F01F0205FA89
:2023E00002F243F821202168CA781A4482F80003CA78510902F01F0205FA02F2603143F859
:2024000021204FF0140C2268DFF81892D278510902F01F0205FA02F243F82120D6F800A07D
:20242000D4F800E0DAF80420784942F48072CAF804209EF805200AF1100A013A0CFB021205
:20244000C2F814909EF80520013A0CFB0212C2F810A09EF80520013A920005FA02F24A607E
:202460009EF805200A321A4482F800039EF805200A324FEA621E02F01F0205FA02F20EF1D5
:20248000600E43F82E20226852790A324FEA621E02F01F0205FA02F243F82E20D4F800E0C0
:2024A0009EF80620013A0CFB0212C2F814909EF806A032680AF1FF3A0CFB0A1C1032CCF86F
:2024C00010209EF80620013A920005FA02F24A609EF806200A321A4482F800039EF8062017
:2024E0000A32511102F01F0205FA02F2603143F82120226809F5D47092790A32511102F0C4
:202500001F0205FA02F243F8212000224049FEF7F9FDFEF78FFD00F5DB1101F5BA5109F534
:20252000D470FEF7F5FD94F8C4A1BAF1000F00F02782D6F800B0374EB6F8252012F08002B2
:2025400013D1CBF800202422CBF8042048F21E02CBF81C200C22CBF82020CBF80050DBF817
:20256000042042F48072CBF804206779002F40F0BA813D46284A11889278ADF80C108DF8D0
:202580000E20264A0492DBF8002094F8AFA142F4807200215046CBF80020FFF767FCD0B19C
:2025A0004FF000080DF10C0919F8010BFFF75EFA88B108F10108B8F1030FF5D1DBF80020A7
:2025C000012142F4A0625046CBF80020FFF74EFC002840F03D81012023680B49DB785A091C
:2025E00003F01F0320E000BFF417002030000020C81B0020000C0140005400400058004010
:20260000126B0008196B000800E100E000000240C9190008D4060020206B00088000C000EF
:20262000001002400018002000FA03F3403241F82230A2E1834D2368082259782846FEF7E7
:20264000D5FC2368082299782846FEF7CFFC0A20FEF71AFC2168AA684878AB68C240D00739
:2026600004D58A78D340DA073FF583AE01252368754A1B79590903F01F0305FA03F3203165
:2026800042F82130BFF34F8FBFF36F8F2368DB78590903F01F0305FA03F3203142F8213049
:2026A000BFF34F8FBFF36F8F23685B790A33591103F01F0305FA03F3203142F82130BFF33C
:2026C0004F8FBFF36F8F23689B790A33591103F01F0305FA03F3203142F82130BFF34F8FB0
:2026E000BFF36F8F32685748136823F001031360236818225978FEF779FC23681822997816
:202700005048FEF773FC2268D8F81C3012780020954023EA0505C8F81C502EE13846FFF7D2
:20272000BDFB1020FFF7BAFB202584F8C50123791BB1002384F8C53198E72846FFF7AEFBF6
:20274000D8B90135EDB2282DF1D138252379002BEFD12846FFF7A2FB78B90135EDB2402DA4
:20276000F4D12579002DE4D194F8C531002BE0D0364BB3F825309B07DBD194F8C53183B132
:20278000D9F80030012143F480731020C9F80030FFF76CFB28B14020FFF728F908B1D9F894
:2027A00010302A4AB2F8253013F002011DD0012184F8C41113F0200F14BF40212021927E49
:2027C000A171082A32D0D90730D413F0080F14BF1222152284F80D21042284F8B1213DB369
:2027E00084F8AF51FFF704FDE3E5D80714D584F8C411C3F34512102A38BF1022282A28BFDC
:20280000282284F80D21C3F3C222022A38BF0222042A28BF0422E0E725F001013C290CBF9A
:202820000121002184F8C411C4D0E2E71022D1E784F8C451002BD5D1282384F80D31D1E79E
:202840004746A0E6000C014000E100E0D40600204020FFF7CBF800283FF4BDAEDBF800208B
:20286000402022F48062CBF80020DBF8002042F48072CBF80020DBF81020FFF7B7F800284F
:202880003FF4A9AE674BDBF8102015F803805FFA82F989EA0808002150468DF81380FFF74D
:2028A000E5FA00283FF497AE4FF0000A04AA12F8010BCDE90022FFF7D9F800283FF48BAE59
:2028C0000AF1010ABAF1040F009AF0D10DB1B94502D10135032DB3D1FFF7B2F8032D0CBFC5
:2028E0000222012262710F224F495048FFF7D3F8B6F825204D4F12F0400F14BFA722A62258
:202900008DF8102081228DF8112096F834203D188DF81220A8228DF81320A2792846511E41
:20292000402A0CBF122202228DF81410DA218DF816208DF81510072204A9FFF7ACF83C490C
:20294000B6F825202C1812F0040F01F102004FF0020208BF01462046FFF79DF80444204647
:20296000FFF702F9DBF80420204442F40062CBF80420C01BFFF748FA012007B0BDE8F08F7D
:2029800094F8AF01336830B95A6842F400625A60FFF742F9EEE71A68514642F480721A60A2
:2029A000FFF764FA002839D03020FFF767F841F20400FEF769FA3020FFF760F86420FEF747
:2029C00063FA3020FFF75AF82020FFF757F85246282104A8CDF81090FFF778FA5246082162
:2029E00004A8FFF773FA5246062104A8FFF76EFA524604A80C21FFF769FA3268536843F4A9
:202A0000006353600498A0EB0900FFF7FDF9002FB2D1FFF735FC08232372ADE7002FACD1AB
:202A200024E600BFCD1E0008236B0008001800200E6B000870B5174B00241B6814265A6960
:202A40005A69154822F45F425A614FF4004205681C601A60AA791149013A06FB021294603B
:202A60006B7900F5DA70013B06FB03139C6001246B79AA79013B013A9B00920004FA02F222
:202A800004FA03F313434B60FEF77CFBBDE87040FFF706BC30000020F4170020000002400B
:202AA0002DE9F843DFF85C9004464FF010084F46134D4FF4803399F80020022093402B6144
:202AC000FEF7E2F914F4004F14BF01234FF4803301267A78022093402B61FEF7D5F93B78D2
:202AE000042006FA03F32B61FEF7CEF9B440B8F10108A4B2DDD17B789E402E61BDE8F8834A
:202B0000000C014035000020014618220148FEF76DBA00BF000C014010B50B4C0622217844
:202B20000A48FEF763FA0420FEF7AEF92078FFF7EBFF0220FEF7A8F96078FFF7E5FFBDE8AA
:202B400010400220FEF7A0B935000020000C01402DE9F0411B4E0025B0461B4F40F48074B6
:202B6000317806223846FEF741FA0220FEF78CF9E307717820D50846FFF7C6FF0120FEF753
:202B800083F9012C09D1BD6898F801100622CD400D4805F00105FEF729FA0120FEF774F9CC
:202BA00098F80000FFF7B0FF0420FEF76DF96408D6D12846BDE8F08106223846FEF716FA1F
:202BC000DCE700BF35000020000C014038B50D4C0D4D217806222846FEF708FA0420FEF7F2
:202BE00053F92078FFF790FF0220FEF74DF9284661780622FEF7FAF9BDE838400220FEF784
:202C000043B900BF35000020000C014070B506460325FFF7DBFF3046FFF79AFF0446FFF7A9
:202C20007BFF0CB1013DF4D1204670BD014B1878704700BFBC190020064B1A78032A05D19A
:202C4000002814BF89208020FFF7E0BF00B15888FFF726BFBC19002070B5184B04461D78D3
:202C6000032D21D1FFF7B2FFC020FFF771FF30B10126FFF751FF0EB1013DF3D170BD207871
:202C8000FFF766FF0028F3D16078FFF761FF0028EED1A078FFF75CFF0028E9D1FFF758FF40
:202CA000061E18BF0126E4E70278407840EA02205880BDE87040FFF7F3BE00BFBC19002021
:202CC000F7B5002240261546174904460B888DF80620ADF8043001A8A35C0BB1032A03D13F
:202CE000FFF7BAFF03B0F0BDA3F13007092F05D80B4413F82D3C83540132EDE7A3F1610748
:202D0000192F03D80B4413F8543CF4E7A3F14107192F03D80B4413F8343CECE72D2B14BF04
:202D20002B463346E7E700BFA86F000810B5164B164C1B78022B02BF0623637007236078F6
:202D400008BF2370FFF7E0FE2078FFF7DDFE4020FFF75CFF0E4B48B903221A700D48FFF7D7
:202D6000AFFFBDE810400120FFF766BF022261781A7009481222FEF739F912222178064826
:202D8000FEF734F9EAE700BFC81B002035000020BC190020DD740008000C01404288437809
:202DA000007843EA022340EA0320704730B54368C47844EA032184781B0C44EA01214478F8
:202DC0001B0243EA116344EA012104781B0244EA012043EA116130BD034610B5024413F812
:202DE000010B11F8014B9342A0EB040001D00028F5D010BD03690239023B8B4283BF4389C4
:202E0000806A01FB030000207047000003685A1C02601878A0F16103192B01D820387047FE
:202E20007F2882BF024BC01810F8800C704700BFD06F00087FB5044601911D46114629B988
:202E400023785BB955B1012004B070BD01A8FFF7DDFF01390028F2D10020F5E7019B0294ED
:202E60000393029B1B783F2B01D02A2B1DD100231A460299481C02900E7849783F2E14BF73
:202E8000012301323F29F4D02A29F2D00399FFF7D1FF0028D7D1039B197801A8FFF7B6FFE5
:202EA000002DD9D00029D9D1D6E702A8FFF7AEFF064603A8FFF7AAFF86420146EDD1002ECE
:202EC000CFD1C0E702684AB1134613F8011B1F290BD93A29F9D1911C8B4202D04FF0FF30B3
:202EE00070471278302AF9D103600020704738B50D46044618B9092000232B6038BD0368A1
:202F0000002BF8D01A78002AF5D08188DA889142F1D15878FEF718FA10F00100EBD123681E
:202F2000EBE7CA7E8B7E032843EA022301BF487D0A7D42EA002243EA02431846704738B523
:202F4000C36A05468B420C4611D001230A4600F130014078FEF722FA002818BF4FF0FF3429
:202F600003460CBF03460123EC62184638BD0023FBE7000038B50023C3704FF0FF33C36251
:202F80000446FFF7DCFF002844D194F8303094F82F5294F82E02EB2B40EA052503D018339C
:202FA000DBB2012B2FD84AF655239D4206D10822194904F18200FFF70FFF50B394F83C20F1
:202FC00094F83B3043EA02235A1E1A421BD1B3F5007F18D194F83D00A8B1431E184012D11A
:202FE00094F84030013B012B0DD894F8422094F8413053EA022306D094F8472094F8463070
:2030000053EA022305D14AF6552085420CBF0220032038BD0420FCE7D57400080129F8B5C8
:2030200005460C4652D9036999424FD20378022B29D0032B38D0012B48D101EB5106016A96
:2030400001EB5621FFF77BFF10B14FF0FF30F8BD296A771CC6F308062E44284601EB572188
:2030600096F83060FFF76BFF0028EED1C7F308073D4495F83000E30746EA00204CBF000996
:20308000C0F30B00E3E7016A01EB1421FFF757FF0028DAD16400303504F4FF742B195B78B2
:2030A000285D40EA0320D2E7016A01EBD411FFF746FF0028C9D1A40005F1300004F4FE7418
:2030C0002044FFF76BFE20F07040C0E70120BEE7F8B5066904462036B6F5001F24BF002374
:2030E00083618369056863B1C6F3080707BB41690133836139B92B89B3EB561F18D8002367
:20310000A361042019E06B89013B13EA56230FD12846FFF783FF012801460FD9431C0FD08C
:203120002B699842EBD260612846FFF763FEA061002030353D442661E561F8BD0220FCE750
:203140000120FAE700232DE9F04F0B6087B00D46FFF7B8FE061EC0F27D81C54F57F82640B7
:20316000002C00F079812C60237853B90023F0B223706070FEF7EEF810F001050BD00325FA
:2031800005E06078FEF7E0F810F00105EED1284607B0BDE8F08F29462046FFF7EBFE0228B9
:2031A00040F0408194F8F231EE2B40F0188101212046FFF7C4FE002840F0308104F1300916
:2031C00010224846AB49FFF707FE002842D16FF00F034FF0FF31DFF8A4E204F14008032B5D
:2031E00098BF4FF0000C4FF008064FF0010288BF18F803C00CEA020000280CBF084681F0DA
:2032000001004108C00748BF81EA0E015200013ED2B2EFD101334C2BE1D104F14000FFF7BF
:20322000BDFDC943814215D104F18400FFF7B6FD80280FD104F18000FFF7B0FD80288046EF
:2032400008D804F17800FFF7B1FD8246DFF830B2464501D10D259AE7C6F39601F301204642
:2032600051440193FFF76BFE002840F0D780019B102203F4C07309EB030059460193FFF7FF
:20328000ABFD019B08B10136E2E703F120004844FFF78CFD01462046FFF76CFE0128F2D812
:2032A00094F83C2094F83B3043EA0223B3F5007FD0D194F8470094F8461051EA002104D12F
:2032C00004F15400FFF76AFD014694F84060D4F82CA0731E012B6161A670BBD894F83D80CC
:2032E0004346A4F80A80002BB4D008F1FF3313EA080FAFD194F8423094F8419049EA0329F7
:2033000019F00F0F0FFA89FBA4F80890A2D194F8443094F8430050EA032003D104F150000D
:20332000FFF73CFD94F83F2094F83E3053EA022390D001FB06FC03EB19126244824289D8D5
:20334000A0EB020EC645BEFBF8F683D3DFF834E176453FF67FAF4FF6F57E76457ED94FF0B7
:2033600003080AF1FF3E0236704453445244B8F1030F2661C4F818A0E0612362A26257D149
:2033800094F85B2094F85A3043EA02234BEA030B0FFA8BF3002B7FF45DAF04F15C00FFF703
:2033A000FDFCB600606206F2FF16B1EB562F0CD2B8F1010F3FF44EAFB8F1030F0CBF0420FD
:2033C00002204902B1FBF0F12161BB8884F8008001339BB2BB80E380274BE360D7E60DF1A3
:2033E0000808464604F5FB7104F236290846FFF7D5FC1031894546F8040BF7D1002658F8C8
:20340000041B69B12046FFF7B5FD01287FF648AF0136042EF3D104287FF41CAF0125B6E677
:203420000320F5E70428F9D001287FF639AF11E7B9F1000F3FF40EAF6344B8F1020F63624B
:203440004FEA46031BBF9B1906F001061E4606EB5306A8E70B259AE60C2598E640F6F57820
:2034600046458CBF4FF002084FF0010879E700BFC019002050700008C61900202083B8EDBE
:2034800060700008F5FFFF0F38B5002382680446056803619AB92B78022B01D96B6A6BB947
:2034A0002B890BB9022038BD6B6AA361A3696261002BF7D030350020E561F4E71A466B89E9
:2034C00063B911462068FFF7A9FD431C02460BD00128E7D92B699842F3D3E3E71146284627
:2034E000FFF788FCA061E1E70120DCE72DE9F04F0446036889B00193894611F8013B2F2B60
:20350000FAD05C2BF8D00023A36099F800301F2B00F2AD818023204684F82B3009B0BDE803
:20352000F04FFFF7B1BFFF2E00F0C3812BF816000136A0E14A46137891462F2B02F1010252
:20354000F9D05C2BF7D00025ABF10202C6BB00232BF81630002E00F0AC813BF813101A4681
:20356000202903F10103F8D00AB92E2901D145F00305ABF1020131F816302E2B01D0013EA2
:20358000F9D1202004F12003029304F12B0103F8010B8B42FBD14FF000084FF0080A47468E
:2035A0003BF81200531C10B3202803D02E280FD1B34211D045F003051A46F1E70425C3E725
:2035C00032F81630202B01D02E2BC0D1013EBDE7D04505D2B34263D1BAF10B0F58D102E0AD
:2035E000BAF10B0F4FD14FF00B0A45F0030594F82030E52B04BF052384F82030BAF1080FF0
:2036000004BFBF00FFB207F00C030C2B03D007F00303032B01D145F00205AB0707D4FE079C
:2036200048BF45F01005780748BF45F00805204684F82B50D4F800B0FFF726FF0746002808
:2036400040F0F3804FF0FF0A4FF0FF335546E36204935846A169FFF772FC0746002840F0E6
:20366000E480E6693378002B00F0EC80F17AE52B01F03F02A27103D009075BD50F2A5BD02E
:20368000049BE362ACE0B34202D045F00305AED8BF0033464FF00B0A4FF00808FFB28BE732
:2036A0007F2812D945F0020240F2B5110493039200F01CFCDDE9032310F0800F0FD07F49F1
:2036C00000F07F00085C154628B17D4911F8012BF2B18242FAD15F2045F0030511E0FF28E2
:2036E000F1D90AF1FF31884503D3D04645F0030562E704EB0801050A81F82050154608F152
:20370000010804EB080282F8200008F1010853E7A0F1410292B2192A02D847F00207F0E785
:20372000A0F1610292B2192A9EBF203847F0010780B2E6E70F2A5AD194F82B20570645D46A
:2037400058064BD503F0BF05236996F80DA0E362737B534544D1F27EB37E53EA02233FD17A
:203760003778DBF80C3007F03F0703937B1E0D2701225F43534B13F8011B7018407816F813
:20378000018048EA00286AB3FF2F079328D8404600F0E0FB039B0690791C33F81700059177
:2037A00000F0D8FB069A82421AD1059942460F46079B45498B42DED13378590604D51AB122
:2037C000039B33F817305BB9013DEDB22046FFF77FFC074600283FF43CAF26E0AB42B7D004
:2037E000FF25F3E74FF6FF718845E2D0F8E775B9314606F10B02EB0143EA550511F8013B57
:203800001D448A4205F0FF05F5D1AA451CD094F82B7017F001077FF433AF0B223046029918
:20382000FFF7DAFA00287FF42BAF94F82B306FB1042F03D113F0040F08BF0527384609B0FB
:20384000BDE8F08F0427F0E70027EEE75A07F5D4A379DB062FD5019B03F130012369C3F318
:2038600008031944019B1878FFF75BFBA06000262368D3F80CB019F8010B00283FF49EAE6C
:2038800040F2B51100F052FB98B11F287FF696AE2F283FF44FAE5C283FF44CAE7F283FF696
:2038A00042AE0A4A12F8013B002B3FF43CAE9842F8D10627C2E70527C0E700BFD06F0008E4
:2038C000E7740008707000087D700008DE7400081FB5CDE9001003A814460391FFF7F2FA39
:2038E000002815DB0B4B53F820200AB100211170019A0AB100211170019A43F8202024B18F
:20390000684601A9FFF71EFC0446204604B010BD0B24FAE7C0190020F0B591B01746064676
:20392000019100283AD0002302A901A88DF81230FFF708FC044620BB029B019903A80393EE
:20394000FFF7D4FD0446E0B99DF93730002B21DB9DF8124014F010041ED1029D0A992878C9
:20396000FFF7DFFAB06001F11C00FFF717FA3560F060EB8807F00102B38032747474F461EB
:2039800074619DF81230B3710CB100233360204611B0F0BD0624F4E70424F2E70924F6E700
:2039A0002DE9F04F9946002387B08846C9F8003005A904461646FFF79AFA054608BB657CED
:2039C000FDB9237C13F00103029377D0E768626904F12003BF1AB74228BF3746019387B17B
:2039E0006269C2F30803002B54D1059B5B89013B13EA522B15D142B9A06801280AD8022597
:203A00006574284607B0BDE8F08FA1692068FFF705FBF2E7431C03D10123029D6374F0E77F
:203A2000A061DDF814A0A1695046FFF7E3F90028E5D0B7F5007F0BEB00021DD3BAF80A10CE
:203A40000BEB572088424FEA572688BFA1EB0B06334641469AF80100FDF7A0FC0028DBD19E
:203A60007602D9F80030BF1B3344C9F800306369B0441E446661B2E7E369934209D00123EB
:203A800001999AF801000392FDF788FC039A0028C2D1E2616269019BC2F30802C2F50076FE
:203AA000BE4228BF3E461A44911908F1FF3312F8010B8A4203F8010FF9D1D2E70725A0E745
:203AC000F7B50E4601A90446FFF711FA054640B9657C35B9E2686369964228BF16466561E7
:203AE00016B9284603B0F0BD019A57897F0213B3013B721EB2FBF7F2B3FBF7F18A421AD3B6
:203B00007A421340A1696361F61A69BB00266369C3F30803002BE4D0E369B342E1D0019877
:203B200001233246407804F12001FDF737FC054670B9E661D5E7A168A161E6E73B44636162
:203B40002068FFF76BFA431C0146A6EB070602D101256574C5E7012803D9019B1B698342D6
:203B600001D80225F5E7A061BE426369E6D833446361C6F30803002BC8D00198FFF73AF95A
:203B80000028EED000EB5626C1E71FB50446019140B303A901A8FFF7D5FA70B9039B204646
:203BA00001992360FFF7A2FCF0B994F92B30002B0CDBA379DB0603D40520002323600FE023
:203BC000039BE1691878FFF7ACF9A060039B2046DB88A380FFF758FC0428EDD00028ECD130
:203BE00004B010BD0920FBE70428E5D0E5E713B501A90446FFF77BF900B9206002B010BDAE
:203C00002DE9F74F0D4601A90446FFF770F9074620B93DB92046FFF737FC0746384603B079
:203C2000BDE8F08F4FF0FF0904204E46D4F80080A16911B900287DD05CE04046FFF77FF99C
:203C4000002857D1E3691A78002A00F0BD80D97AE52A01F03F01A17153D02E2A51D021F08D
:203C6000200008284DD00F2952D1510647D502F0BF06226993F80D90E2625A7B4A4540D1E6
:203C8000D97E9A7E42EA012211B2002A39D10D204FF0010C1A78D8F80CE022F04002013A19
:203CA0004243DFF8F4A11AF8010B03EB000B9BF801B0185C40EA0B20BCF1000F23D0FF2A17
:203CC0001FD884462EF81200013201310D29EAD11B785B0607D5BCF1000F04D0FF2A10D824
:203CE00000232EF81230013EF6B22046FFF7F0F900289DD000230428A3618ED11AE0B242D8
:203D0000BBD0FF26F1E74FF6FF7B5845DDD0F8E76EB903F10B01F20142EA560613F8012B5A
:203D20001644994206F0FF06F5D1B14502D04FF0FF33E3624FF00008D4F800B085F81E8031
:203D4000A369002B00F09E80DBF82C30AB60E369EB60E36A013370D100232E261A46E0696B
:203D6000815C013220290CD0052908BFE521092A04D10B2B9EBFE81846740133E8184174D5
:203D800001330B2AEBD10021EA185174AA7F002A64D1002B58D06FF01006082005F1110295
:203DA000761BB31812F8011B002950D02E298BB26FD0A3F14101192904D8E169097B084259
:203DC00000D020331373ECE7042093E7BAF1000F05D100F520539BB2B3F5006F13D340F255
:203DE000B51140EA0A4000F081F8FF28C9F1FF061BD9012E24D905EB0903020A9A77D877B2
:203E0000022300209944824608F10208DBF80C3033F808000028D9D14E46BAF1000F18BF7C
:203E2000002600232E44B37796E758B1002EF4D005EB090398770123E3E7C246C146E5E751
:203E40000026EAE70646E8E73F23AB77012300222B449A77E3691B7B03B96B74E369DB7AE8
:203E60002B74E0691C30FEF799FF2860E269D17D937D43EA0123EB80E269517E137E43EABC
:203E80000123AB802046FFF723F9042818BF0746C4E6102096E700BF70700008F8B5064614
:203EA0000D4601F11E0729463046FFF7A9FE044650B94DB1AB7F3BB1034602463946306B04
:203EC000FEF7B8FF0028EED02046F8BD38B50D46036311460446FFF758FE28B929462046EC
:203EE000BDE83840FFF7DABF38BD00007F2810B501D880B210BDB0F5803F13D240F2B5139A
:203F000099420FD10022084931F8024B93B2844203D103F18000C0B2ECE70132802AF3D1C4
:203F20001346F6E70020E5E77E7000087F280DD940F2B513994208D1FF2806D8044B00F1E9
:203F40000040803833F8100070470020704700BF7E700008B0F5803FF0B522D21F4A83B250
:203F600002F5F971B0F5805F28BF0A46141D34F8042C2146A2B1934212D334F8025C2E0A62
:203F8000EDB2AF18B84222DA082E09D8DFE806F0050A10121416181A1C00801A34F8103042
:203FA0001846F0BD981A00F001001B1A9BB2F7E7103BFBE7203BF9E7303BF7E71A3BF5E711
:203FC0000833F3E7503BF1E7A3F5E353EEE70434002ECCD101EB4502C8E700BF7E7100082B
:203FE00070B506460C460025E30704D5182229463046FCF7FBFF0135102D4FEA5404F3D142
:2040000070BD0000124B1B780F2B0ABF114B4FF0FF309868104B08BFC008197829B90F4A00
:20402000926892FAA2F200EAD250C0435B7800F0070063B102290BBF064B094B9B689B68D9
:204040000CBF1B0A1B09DB4303F0040318437047EC17002000080140C81B00200010014062
:20406000001C014038B508220B214948494DFCF7BDFF08220C214648FCF7B8FF4FF6FF7186
:204080002846FFF7ADFF6420FCF7FEFE424AAB681278C3F307314148C3F3033322B3404AB2
:2040A0001268C2F30B02B2F5E37F03D040F24224A24217D102223B4B1A700F230F22394C68
:2040C0000270217802292CD1012340F213256370637823B1182206213348FCF787FF41F611
:2040E00007110EE08C07E9D411F00E0F03704CD1042102222648FCF779FF40F2112549F6F3
:204100001F1181F47F41224881F0FF01FFF768FF85F47F41254881F0FF01BDE83840FFF7D8
:204120005FBFD90758BF01234FF008024FF00F01184858BF2370FCF759FF6420FCF7A4FE40
:20414000AB681A0404D5022341F211256370BFE7174A154D9369072143F08003936128464F
:204160000822FCF743FF6420FCF78EFEAB6804221B0658BF01234FF007010B4858BF6370C4
:2041800040F21125FCF732FFA2E740F21125A6E7000801400010014029070020EC17002008
:2041A000002004E0C81B0020001C0140000C014000100240024A536943F48053536170477F
:2041C00000100240E022034B83F8432308229A60704700BF00E100E070477047FCF754BE8E
:2041E000FCF756BE034B9B68036042F228334B434360704710E000E0002210B5084B4168DA
:204200009C6803681B1B23F07F43994285BFCB1AC0E900434260104698BF012010BD00BF38
:2042200010E000E0014800F0C5BC00BFE81B0020704700000022014B1A707047981F0020D5
:204240007047704770470120704700000122024B00201A70704700BF981F002010B9024BE4
:2042600018787047012070473800002040B9064B1B78DB0706D4002918BF04210846704704
:204280000421FBE70321F9E73800002008B5054B187828B1044800F070FC003818BF01206D
:2042A00008BD00BF981F0020E81B002008B5FFF7EDFF20B1024B187B003818BF012008BD3B
:2042C000EC20002010B5074CD4F894305B6C98470C23054A23711378012043F001031370EC
:2042E00010BD00BF981F00203800002008B560B9FFF7CCFF38B1064B187B002818BF04207C
:20430000044B187008BD0120FAE70420FAE700BFEC200020380000202DE9F0470F4690463F
:2043200030BB2BB3154A1278D10723D4520723D4DFF84C90DFF84CA05E02484600F01DFC3F
:2043400018B9BDE8F047FFF7BDBF334642463946484601F0CBFF054604465146484601F0CA
:204360003FFC032DE9D0002DEBD12046BDE8F0870424FAE70324F8E70224F6E73800002044
:20438000E81B00209C1F002070477047704770477047704770477047704700000022014B42
:2043A0001A707047981F00200022014B1A707047981F00202DE9F0470F46904620BB1BB33E
:2043C000134A1278D20721D4DFF84890DFF848A05E02484600F0D1FB18B9BDE8F047FFF76D
:2043E00071BF334642463946484601F0C9FF044605465146484601F0F3FB032CE9D0002C19
:20440000EBD12846BDE8F0870425FAE70325F8E738000020E81B00209C1F002007B5054BE3
:2044200001210093044A054B054800F0A3FF03B05DF804FB3C0000209C1F0020B800002034
:20444000E81B0020014B1860704700BF302000200149024801F082B89C1F0020E81B0020D2
:2044600008B5064800F089FB28B9054B1879003818BF012008BD0120FCE700BFE81B002020
:20448000981F0020002337B50446114D01930320FFF7A4FEE268013D1369019314D0019B27
:2044A000002BF4DA019B43F001030193019B1361E168074B0A69013B019202D0019AD20769
:2044C000F8D40320FFF78AFE002003B030BD00BF410D030010B51C46C3783BB900EB8200DC
:2044E0000334D0F8D020A4109C4201D1002010BD51F8230001331060F6E7002310B5033272
:20450000D0F8D0009210934202D101EB830010BD046841F823400133F5E7012370B5438059
:2045200040230129838032D14FF4816303804FF4A073C380022303724FF0A043C172002195
:2045400003F5006245780261C36003F5106200F118048D421DD803F58062426103F5886224
:20456000C0F8CC200246002112F8905B03F5A0648D4216D8002203F5805100F1D0049542F9
:2045800014D803F56063C0F80C31002070BD0023D5E744F8042B02F50076A66301312032EE
:2045A000D7E742F8044B01312034E1E744F8041B013201F58051E2E770B50025027A044638
:2045C000012A2E46C36827D19D6B427A66F310450AB145F480159D63E2682046D36823F41C
:2045E000940323F04003D360FFF74CFFE378012B10D12A2363F30706E3689E60E378012B72
:2046000008D1E268966826F03E0343F02A0363F307069660002070BDDA6842F04002DA602C
:20462000FFF730FF2D2363F31745637A0BB145F48015E36814209D63FFF7D2FDDEE7C268B9
:204640000020936843F0010393607047C2680020936823F00103936070470000002307B579
:204660000193019B43F020030193019B61F38A130193C368019A1A61C168074B0A69013B94
:20468000019202D0019A9206F8D40320FFF7A6FD002003B05DF804FB410D0300002307B5A3
:2046A0000193019B43F010030193C368019A1A61C168074B0A69013B019202D0019AD206AD
:2046C000F8D40320FFF78AFD002003B05DF804FB410D030008B5C0680129C368C3F307629D
:2046E00022F0600262F31F6307D143F00053C3603220FFF775FD002008BD0029F7D143F02B
:204700008043F4E7C368586900F001007047C36858699B691840704743699868C04300F0C9
:20472000010070470023C26893614FF0FF33C2685361C26853606FF08042C3685A61C36822
:204740000A4A9A61C378C268002B14BF002310239169C0F220330B439361C26800209369CA
:2047600023F0005323F0080393617047000800804269136861F3010313607047D0F8CC3016
:20478000186820F02E0363F30700704738B504460D46FFF721FD2046FFF7F0FFC20408D4B9
:2047A000012D02BFD4F8CC3040F480501860C30405D525B9D4F8CC3065F30C30186038BD7E
:2047C00043695869704738B50546FFF7D7FFD5F8CC3040F480741C606420FFF701FDD5F8FF
:2047E000CC306FF3082414201C60FFF7F9FC012038BD38B50446FFF7F0FC0021D4F80C313B
:2048000020461960237A012B18BF0121FFF7B0FFFFF7D9FF626913686FF382031360E37A87
:20482000012B0AD18022E3685A62E36802F5C0029A62E3686032C3F8002110212046FFF782
:204840000DFF2046FFF72AFF00234FF0FF301D4604F190022178994208D801212046FFF77A
:2048600095FF2046FFF75EFF002038BD11680133886052F8041BCD60ECE74FF0FF3270B543
:2048800000EB8104D4F890309A604A1DC37800EB421595F81551012B14BF00230423032DD2
:2048A00011D8DFE805F00263025643F4936545F0010565F30F0300EB421595F81261002E52
:2048C0003ED043F48073D4F89050EB600123456903FA01F1AE693143A961C16800EB4210ED
:2048E0008B6943F000738B6190F8113190F8151103F00F02B0F81631C3F30A0343EAC223F2
:2049000090F8122102F0010243EAC23390F81321951E6A426A4143EA424301F0030243EA2A
:20492000824390F81021032902F07F0243EA8253D4F8902008BF43F000531360002070BDCF
:2049400095F8145143F04003002DBCD043F02003B9E743F4D36545F0010565F30F0300EB41
:20496000421595F81251002DABD1ACE743F4087545F0010565F30F0300EB421595F8125129
:20498000002DA0D043F4C07565F30F039BE70A462DE9F0414D0100EB4111D1F8C0310446FC
:2049A000561D002B5BD000EB4610B0F81601013B0344B3FBF0F39BB2B3F5807F04D94FF406
:2049C00080730002C1F8C00104EB461090F8127127B1B0F816015843C1F8C001D1F8C001E2
:2049E0006719C0F3120040EAC34397F8B80104EB820800F0030043EA4073D8F8900023F03B
:204A000000430361E378012B02BFD7F8BC01D8F890305861D8F8903020461F68FFF77CFEE5
:204A2000430103F02003C7F3046063F07F03034363F31F67D8F890301F60E3782BBB04EBC8
:204A4000461696F8123103BBD1F8C031EBB196F81501032811D8DFE800F0041B041B012344
:204A6000B2E7E0680333C66AC3F38F03B6B29E4203D2836943F0200383612544B1F8C03161
:204A80002046D5F8BC11FFF725FD0020BDE8F081606903330069C3F38F0380B29842ECD24E
:204AA000E068836943F08063E6E710B500EB8101D1F8902013681C46640355BFC06840690B
:204AC000C06A006943F0804310F47F0FC0F3074404BF64F3DF731360D1F8902043F00043EF
:204AE0001360002010BD000000EB8101D1F89030064A00201A61D1F890100B68C3F305627C
:204B000062F07F0262F31F630B60704700000880002310B51A460446C0F8103104EB830044
:204B2000C0F81821C0F85421E01801330F2B80F89021F3D108232046A4F8B631FFF7EDFC11
:204B40002046FFF783FD2046FFF736FD01212046FFF7C0FD2046FFF74CFE2046FFF76FFD41
:204B6000002010BDD0F8CC301868C0F34140704708B5FFF728FE002008BDD0F810017047CB
:204B8000D0F814017047084490F89F017047543100EB8100406870470A4638B500240E3265
:204BA000451800EB421385F89F415C60FFF7EFFE38BD00002DE9F04F8BB00446FFF7A2FDF8
:204BC00028B94FF0000840460BB0BDE8F08F2046FFF79DFD00900028F3D010F008089DF832
:204BE000006009D0C04B20461B684FF001081B6898470822E3685A61F2066BD50023E26809
:204C00008DF81B30936923F010039361E3681A6AC2F303038DF81B309DF81B3002F00F076C
:204C200004EB8303D3F890301D68C2F34343022BA84648D147F6F073134244D09DF81B3097
:204C400004EB4313D3F8BC31EBB39DF81B30C2F30A1904EB43134A46D3F8BC112046FFF738
:204C60004CFC04EB4713D3F8BC214A44C3F8BC21D3F8C4214A44C3F8C4219DF81B3004EB28
:204C80004313D3F8C4219DF81B30543304EB83035A609DF81B3004EB8303D3F890301A6915
:204CA00041F6F87313EA12430DD09DF81B30C5F3056504EB8303D3F8903065F07F0565F3F0
:204CC0001F68C3F800804FF00108E268936943F010039361B30612D5E368D4F8C061DB6A2D
:204CE00003360793C6F38F06BDF81C50B54204D9D4F8C031002B40F0A4804FF00108009B7F
:204D00001B0E0193009B5F0112D56369D4F8C0611B6903360793C6F38F06BDF81C50B5427E
:204D200004D9D4F8C031002B40F0B4804FF00108019B9E0710D52046FFF742FD00231E46BA
:204D400082B204F1900904F5DA7A029222789642C0F0CC8048EA0308019BDD074ED5D4F896
:204D6000CC301D68D3F800A015F002062AF02E0363F3070AEFB207D05B4B20461B6801265A
:204D80005B6898474AF0020A38072BD517F0040FDFF854914AF0080A00F0AC82C5F30745A8
:204DA00005F00605042D01D0022D11D16269042D13680DD141F2707103F00303022B5160A0
:204DC00006D0217A022940F08C822046FFF7D0FCD9F800302046DB689847E268936943F0CF
:204DE00000539361B90648BF0126D4F8CC3048BF4AF0200AC3F800A048EA0608019B9A0675
:204E00000AD5394B20461B684FF001089B6898474FF00052E3685A61009B9B027FF5D3AE58
:204E2000D4F890104FF001080B68C3F3056262F03F0262F31F634FF400120B60E3685A61FE
:204E4000C1E6AD00ADB29D4205D9E2689DB2936923F0200393612B4600222046D4F8BC1191
:204E6000D4F8C061FFF736FBD4F8BC3103362B44C4F8BC31D4F8C031C6F38F065B1BC4F8D7
:204E8000C031D4F8C4312B44C4F8C431E368DB6A079329E7AD00ADB29D4205D9E2689DB2A4
:204EA000936923F0806393612B4600222046D4F8BC11D4F8C061FFF70DFBD4F8BC3103369D
:204EC0002B44C4F8BC31D4F8C031C6F38F065B1BC4F8C031D4F8C4312B44C4F8C4316369DF
:204EE0001B69079319E700BFA0000020029A3241D50740F19B80D9F800502B68180440F1DD
:204F00001A81AA68EB682F6802EA030B1BF0040F5B463A465FFA8BF117D00421A960D9F806
:204F20000000C16841F00201C1601BF4007F46D0D9F80020D36843F00203D3602046F1B2AF
:204F4000FFF7B3FD4FF4007308E111F0200002D02021A960E9E7090718D54FF0050CE96861
:204F600060F3041341F00201E960A11981F890C11021A96008212046A960F1B20393059323
:204F80000497FFF792FDDDE90332CEE71BF4806FCBD0E968204641F00201E960F1B2CDE91B
:204FA00003B7FFF782FDDDE9033210210820A960A11981F890014FF48061A960B5E7D9B24D
:204FC00013F0010346D0E378012B0CD1D9F800301A69DAF80C30C2F312029A1A06F15403F3
:204FE00004EB83035A604FF001030022A11981F8903106F1460344F8232001237A03AB60BE
:20500000C7F3074318D4D9F800202046D368F1B243F00203D360FFF748FD1023AB609AF8F5
:20502000143083F001038AF814300123013609F104090AF1200A89E603F00C030C2BF4D1FB
:20504000D9F8003047F000521A604FF0010381F89F31EAE7880733D5D9F80010CA6863F3EF
:205060004102CA60A31993F89021012AD1B203D183F89F11022371E093F89021052A03D169
:20508000042283F89F21F5E793F89021062A03D093F89021082A06D1002106F1460244F8B3
:2050A00022100322EDE7C7F3074707F00C070C2FE0D19AF8143083F001038AF81430D9E7F4
:2050C00008060FD5D9F800202046D368F1B243F00203D3600622A31983F89021FFF7E5FC57
:2050E00080233BE0CB06A0D5C7F3074B0BF00C030C2B0DD1D9F80010CB6843F00203CB600A
:20510000E3782BB92046F1B20392FFF7CEFC039A0321A31983F8901110231BF0040FAB60FD
:2051200083D1C7F30567D9F8003067F07F0767F31F621A6079E7A968EB68286819404F07BF
:20514000CBB208D50423AB60D9F80020D36843F00203D36069E79A0602D52023AB6064E7CC
:20516000C1F3072212F0020704D0EB6843F00203EB60E3E613F0010F13D006F1460344F862
:205180002370EB68204643F00203EB60F1B2FFF78CFC01234FF00102AB60A31983F89021C6
:2051A00043E713F008070ED00823AB60D9F800202046D368F1B243F00203D360FFF775FC98
:2051C0000522A319EAE713F0100F12D006F1460344F82370EB6843F00203EB60E3781BB903
:2051E0002046F1B2FFF761FC10230322AB60A319D4E70F060CD5EB68204643F00203EB6047
:20520000F1B2FFF752FC0622A31983F8902167E7590613D5002206F1460344F82320EB68CE
:2052200043F00203EB60E3781BB92046F1B2FFF73CFC40230422AB60A319AFE712F0040297
:2052400010D0EB68204643F00203EB60F1B2FFF72CFC10230822AB60A31983F890214FF4DE
:2052600080637BE79F077FF5E0AEEB68A71962F34103EB6097F89031012BDAB20FD1C0F3AF
:20528000074000F00C00082887F89F217FF4F2AE9AF8153083F001038AF81530EAE697F8D5
:2052A0009031032B03D1022387F89F31E2E697F89031042B08D19AF80030012BF3D120467F
:2052C000F1B2FFF711FCEEE797F89031052B01D10423E9E797F89031062B7FF4CBAE032377
:2052E000E2E74BF680316269012B51603FF470AD01216AE5D9F8003020461B69984771E56A
:205300000123C0F81031002070470123C0F814310020704703460020C3F814017047002091
:20532000704738B5044600250021FEF755FF4FF0FF32E36820469D61E3685A61FFF786F956
:205340002846C4F8105138BD38B54FF080730B6001230B7740238B714FF4807305460C466B
:205360000B84097900F02CFB2846617900F028FB002038BD2DE9F041144605461F460E46F0
:20538000DDF81880FEF716FF0020FEF726FF21462846FFF7D9FF31462846C4E92378FFF796
:2053A000B7FBD4F890301B6898472846BDE8F041FEF708BF0B1F012B10B5044606D8D0F842
:2053C00090305B6C98470C23237010BD0629FCD1BDE810400C230370D0F890301B681847DB
:2053E00038B500238B740B7F0C46013B0A2B21D8DFE803F0060D30374D5A676E8797A400E6
:205400004A79143100F013FB0223237712E04979FFF7B9FB012816D1628B94F914305AB190
:20542000002BB4BF0323052341F2883123774A48FEF7D8FE002063E0002BB4BF0923072346
:2054400032212377F3E7032801BF0B2323770523A374EFE70B798A89896800F01FFB042304
:20546000D3E70979FFF78FFB012806D1092323773948FEF7C1FE40B9DCE7042803D16378DE
:2054800023700C23C1E70328F2D10B23BDE701224B7900EB431383F8C9214B798A8989688D
:2054A00000F0DBFA0623B0E74979FFF76CFB012801D10723A9E70428E1D002283AD1052359
:2054C000A3E700220B79114600F0E8FA08239CE70979FFF758FB0128054603D16378237044
:2054E0000D2392E70328D0D01B48FEF785FE0028CBD1042D9ED16378032023700C2323779F
:2055000038BD4B7900EB431393F8C92182F0010283F8C92100224B79114600F09EFA0A2350
:2055200073E74979FFF72FFB0128D7D0022801D109236AE703287FF47DAFA6E78B7B013355
:20554000DBB2022B8B7301D801235EE708238B744B7802200B70D3E734200020022370B54F
:2055600094B005460C468DF80F30FFF706FBA0B92378002B36D12846FFF7FFFA58B10123DF
:2055800064202370FEF72CFE2846FFF7F1FAD4F89030DB68984714B070BD2846FFF7F0FA99
:2055A0000028E5D023780C2BF5D801A252F823F077550008275600083B560008ED55000833
:2055C00097550008B156000897580008B1580008CD580008735800089755000897550008D8
:2055E000D7580008032B01D003232370D4F890301B69984721462846FFF7A6FED4F89030D2
:205600005B689847D4F88C3004F1200128465B689847284600F0E2F90023012128462370BB
:20562000FFF776FAB7E7D5F81431012BB3D1022332202370FEF7D4FDADE7D4F890309B68B1
:2056400098470021284600F0A1F980216071284600F09CF920712846FFF78AFA0646002800
:2056600099D1D4F89030DB6898472846FFF77AFA0523C0B22370D4F8903084F821009B69E0
:205680009847A37994F82020CDE90063217994F82130284600F032F9A3792846CDE9006387
:2056A00094F8202094F82130617900F027F972E7A378092B3FF66FAFDFE803F00525365BE7
:2056C0006A7E97B0C9D408222146284600F0C6FE064600287FF45FAF012294F82930617974
:2056E000CDE90003A371A27003460246284600F02EF9A3793246CDE9006333462179284687
:2057000000F025F947E712222146284600F0A6FE00287FF440AFD4F8903004F12200DB693F
:2057200098470223A37036E701222146284600F00BFF064600287FF42EAF0220FEF750FD1B
:20574000012384F82030D4F890301B6A9847032394F820202179A37028463346CDE90066C7
:2057600000F0F5F83346CDE9006694F820206179C5E709222146284600F0E8FF00287FF4F3
:205780000AAFE38EB3F5806F3FF605AF0423C9E721462846E28E00F0D9FF00287FF4FBAE37
:2057A000D4F8903004F150025B6A04F13E0104F1340098470523B5E794F8302082B14023DF
:2057C00021460093284604AB00F090FE00287FF4E2AED4F8903004A89B6A98470623A1E73C
:2057E000D4F8903044489B6AF7E794F8312082B1402321460093284604AB00F077FE002897
:205800007FF4C9AED4F8903004A8DB6A9847072388E7D4F890303848DB6AF7E794F832209C
:2058200082B1402321460093284604AB00F05EFE00287FF4B0AED4F8903004A81B6B9847D9
:2058400008236FE7D4F890302B481B6BF7E72146284694F8392000F082FE00287FF49BAE56
:2058600009235FE7D4F890305B6B98470923237091E6D4F890309B6B984701287FF48BAE09
:20588000D4F88C30214628461B68984700287FF482AE0623EBE7D4F88C3021469B68284623
:2058A00098478DF80F009DF80F304BB90723DEE7D4F88C3021462846DB6898478DF80F009B
:2058C00020469DF80F10FFF775FD64E621462846FFF786FD5FE621462846FFF735FDD4F8A0
:2058E00090305B689847D4F88C3028465B6804F1200198474FE600BFEE74000870B501F51F
:20590000E47430F814504C1D00EB441405F07F06C5F3C01584F81251002584F810219DF8AA
:20592000102084F8116184F81521BDF8142084F81331A4F8162100EB4112A2F8C85113B95E
:20594000012384F81431FEF798FF002070BD70B54C1DBDF814501AB100EB441686F8102123
:2059600000EB4412B2F81661AE4202D00DB1A2F8165100EB441494F813219A4202D00BB1D7
:2059800084F81331FEF779FF002070BD002330B500F5647434F9025BDAB2002D0ADB6FEA37
:2059A00041416FEA514103F5E47392B220F81310D0B230BD0133082BECD14FF6FF72F7E785
:2059C00007299CBF00EB4101B1F890334FF000009CBFC3F30E03A1F89033704703460020C6
:2059E000C3E9E500C3F89C037047C87810B5012805D002284FF001030BD018460FE00C78E9
:205A00008B814C70082402230C708A600877CB7005E00A7F0D2A03D10020CB70087710BD2D
:205A20000B2AF4D00C2AE8D10320CB70F7E738B50025541D00EB441484F8125100EB42145C
:205A4000C4F8BC110325082184F8B851C4F8C0111146FFF7A1F8C0B238BD38B500255C1D82
:205A600000EB441484F8125100EB43155C01C5F8BC11C5F8C0215AB9012285F8C92102227B
:205A80000444194684F8B821FFF786F8002038BD95F8C921002A18BF0222F1E770B50126C1
:205AA00000EB431585F8B2610226C5F8BC1185F8B8611946C5F8C021FFF76EF8002070BD25
:205AC00070B500265D1D00EB451585F8126100EB4315C5F8C02195F8C921C5F8BC11B242F6
:205AE00018BF0222194685F8B821FFF755F8304670BD70B500EB4315C5F8C02195F8C82194
:205B00000126002A18BF0222C5F8BC1185F8B261194685F8B821FFF73FF8002070BD0000F0
:205B200008B5FFF72AF8084B40B1084A0849C3E9001200225A73012283F8232000221A637C
:205B4000044B1A7008BD00BF402000205040302055534243EA20002008B552B1012A0ED068
:205B60000120094A136B0133052B136328BF042008BD064A1378D27800F0FCFCF1E7034A57
:205B800053789278F8E700BF40200020A020002038B50546FEF7F1FF0E4C18B9012084F84D
:205BA0002F0038BD0C4B28461978FEF7F0FF0D280ED1626B094B9A420AD1A26B63689A42E7
:205BC000ECD194F840000028E9D00228E6D1E6E70220E4E740200020A02000205553425323
:205BE0002DE9F04105460E46FEF7C7FFE0B1A04C94F82430013B072B16D8DFE813F0080079
:205C0000170042008A00D500F80020012C01994B1F225B7828469649FFF752FF4FF48173C3
:205C2000A384002384F84430BDE8F081914B28465978FEF7A8FF012816D10023236302237F
:205C400084F82530A3686BB1A364A36AC4E9133394F90C30002B03DA032384F82430E3E7B4
:205C60000423FAE70523F8E7022802D194F82530F3E7042840F08C80012384F854300823A6
:205C8000EBE77C4E28463178FEF77DFF012803D094F82530032B24D00323002741F28831A8
:205CA0007548276384F82530FEF79CFAB288A16C8A420CD23378E16C2846FFF71AFFB188A2
:205CC000A26CE36C521A0B44A264E364ACE70029C8D08AB228463378E16CFFF70AFFA7645F
:205CE000A2E7042806D1002384F8543040F20753A38499E7032840F09A8094F84430013319
:205D0000DBB2022B84F84430A6D9022384F82F308AE7584E28467178FEF735FF012821D1A8
:205D200000270423F288A16C27638A4284F825300FD273782846E16CFFF7C2FEE36CF28861
:205D400023651344E364A36C84F844709B1AA3646AE7002986D08AB228467378E16CFFF77A
:205D6000AFFEBCE702280BD1E16C206DF288814273782846BDE8F04118BF891AFFF7A0BEB9
:205D8000042805D1012384F854304FF4A163AFE703287FF449AF94F844300133DBB2022B7C
:205DA00084F84430B1D861E7052384F82530334B3F2219460026A285A36203F10C0202F89D
:205DC00001699A42FBD12B4B28461B783F2284F83460FFF78EFE062384F8446084F824302E
:205DE00041F28831BDE8F0412348FEF7FBB9214B28461978FEF7C7FE01280FD100232363F6
:205E0000052384F8253094F822303146284684F82030FFF7BDFE84F82F0005E7042804D1B1
:205E2000002384F85430072317E70328B3D01248FEF7E2F900283FF4F7AE012366E70022AC
:205E400031462846FFF788FE68B994F85430022B7FF40CAF13E7012231462846FFF77CFEE3
:205E600000283FF403AF04287FF4DEAE4DE700BF40200020A020002098200020742000200B
:205E80000020014B187070476020002038B50C4C0546617839B1FEF708FE28466178FFF72C
:205EA0008FFD00236370217841B12846FEF7FDFD28462178FFF784FD0023237038BD00BF90
:205EC000A0200020F7B591F843300646082B0D4641D191F84530502B3DD191F85220B1F82B
:205EE000543091F952101E4C002995F95A10ACBFA270E27095F85A20B4BFA380E3800029AF
:205F0000B5F85C30A8BFA270A178BABFE270A380E380FFF73BFDE17860703046FFF736FD6F
:205F20000227E38895F82020617820700193304695F821300097FFF7E1FCA3883046CDE9EE
:205F4000007395F8202095F821302178FFF7D6FC002003B0F0BDD5F890301B6C9847F7E771
:205F6000A0200020012811D10A4A92F84A300133DBB2092B82F84A3004D80622064B1A7016
:205F8000D87070470A22044B1A7070470228F9D0704700BFA020002060200020F8B5044666
:205FA0000E46FEF7EAFD08B901241EE0484D2B780A2BF9D801A252F823F000BFEF5F00087A
:205FC000A95F0008FB5F0008676000087D6000088B600008BF60000899600008A360000875
:205FE0004B600008E95F000804242046F8BD2046FFF796FD02232B70D6E74FF6A1624FF464
:206000008033344FC6E9052320460123314607F10802FFF7EAFC044688B93B7A87F848305D
:2060200053B197F84B303BB9012387F84B30D6F890301B6C9847D8E703232B70D5E70328E5
:20604000D3D140F209332B80CFE7204600223146737900F08FFA04460028C6D11D4B83F87D
:2060600048006B78E9E7204600F036F8044660BB04232B70174B83F84A40B6E7204600F020
:2060800061F8044608BB0523F3E7204600F0A4F80446D0B90823ECE731462046FFF7A0FD65
:2060A00082E7D6F89030DB6B984710F0FF0001D10823A0E701287FF477AF062495E7204673
:2060C00000F0CCF804460028CBD0FFF74BFF6BE760200020A020002070B5FEF74EFD28B1AF
:2060E000154CE678012E03D0022E19D0032016E0124B0021A3603F23114D102205F10F0035
:20610000A381A9602973FBF7CBF80623EB8107230320237040F20323E0736380267170BD3A
:20612000E07B10B90123E370F9E7012801D1E070F5E70228DAD1F5E76020002074200020B8
:206140004020002070B5FEF718FD28B11E4CE678012E03D0022E1BD0032018E008231B4D24
:206160001022AB6080232B73194B00211B6805F10F00A360FBF794F842F20A53EB810723EC
:20618000032023704FF40173E0736380267170BDE07B88B90E4B1A680E4B1178D97051782D
:2061A000997091785970D178197091795972D2791A720123E370EAE7012801D1E070E6E726
:2061C0000228C9D1F5E700BF602000204020002030200020EC200020F8B5FEF7CEFC28B15F
:2061E0001A4CE678012E03D0022E1DD003201AE080233F27164D10222B73164B00211B685E
:2062000005F10F00A360AF60FBF74AF841F60623EB8107230320237040F205236F74EF74E7
:20622000E07363802671F8BDE07B40B9094B0A4A1B689B78DB0913730123E370F3E7012866
:2062400001D1E070EFE70228D0D1F5E7602000204020002030200020EC200020F8B5FEF741
:206260008CFC28B11D4CE678012E03D0022E1ED003201BE080233F27194D10222B73194B15
:2062800000211B6805F10F00A360A378AF606370FBF706F840F20633EB81072303202370AE
:2062A00040F20623EF74E07363802671F8BDE07B68B90C4B1A680C4B1178D971517899714C
:2062C00091785971D2781A710123E370EEE7012801D1E070EAE70228CAD1F5E7602000206D
:2062E0004020002030200020EC2000202DE9F843894617461E46FEF740FC40B11E4C94F889
:206300000380B8F1010F04D0B8F1020F27D003202CE00021194D102205F10F00AE60297325
:20632000C4F80890FAF7BCFF42F60A23EB81C7F307636B74C7F30743AB74C7F30723EB7423
:20634000730AEB750723032023700223C6F347462F75AE7584F80480E073E37006E0E07B67
:2063600008B90123F9E7012802D1E070BDE8F8830228CCD1F5E700BF60200020402000206A
:206380002DE9F84F4FF00309254E8B4690461F4686F80090FEF7F1FB40B1224C94F803A059
:2063A000BAF1010F05D0BAF1020F2CD03078BDE8F88F80231C4D1022002105F10F00AF604E
:2063C0002B73C4F808B0FAF76BFF42F60A03EB81C8F307636B74C8F30743AB74C8F3072392
:2063E000EB747B0AEB75072323700223C7F3474785F81480AF7584F804A084F80F90E3706C
:2064000086F80090D2E7E37B13B90122E27002E0012B02D1E3703370C8E7022BC6D1F4E7F1
:20642000C8000020602000204020002030B41D4662F07F020A750622CD8205F47F45B5F5DD
:20644000407F4A7540F2094218BF0022BDF80C300A834B83029A30BCFFF7C7BA73B5224E65
:20646000154633680192009300224FF480730C46FFF7DCFF002834D13368082D1A7884F87A
:2064800022205A7884F82320D9789A7802EB0122A2841A7984F826205A7984F827209A7992
:2064A00084F82820DA7984F829201AD9597A1A7A02EB01226285D97A9A7A02EB0122A28511
:2064C000597B1A7B02EB0122E2859A7B84F83020DA7B84F831201A7C84F832205B7C84F822
:2064E000333002B070BD00BF3020002037B51C464FF40073134D01932B68009342F4407324
:206500000022FFF793FFA8B929684B78032B0FD111F8022BBDF818305208013A013B9BB2BD
:2065200092B29A4228BF1A460346934204D11C440023237003B030BD11F81350E554013372
:20654000F3E700BF302000204FF4A0638B82002310B4CA8210BC1A468B61FFF746BA4FF45B
:2065600010638B82002310B4CA8210BC1A468B61FFF73BBA10B44FF481744C6100245B013C
:2065800012F0800F03440A834C8314BF83F8C84183F8C941002310BC1A46FFF726BA0000C6
:2065A0002DE9F04F93461A788BB002705A7809914270D9789A7802EB012242801A79027115
:2065C0005979417199798171D979C171197A0172BDF85010092940F2B580022A37D84FF081
:2065E000000C0921584ACDF81CC092F800E05288019242888A4206D80020534B58801870B9
:206600000BB0BDE8F08F1A78134411445A7889B2042AEED193F80390B9F1020FE9D81A7837
:206620001E7902925A79032E03929A790492DA7905921A7A06920CD9079B13B1424B83F884
:2066400000E0BCF1000F02D03F4B019A5A800320D6E7182493F90270099D07EBC7022A44E4
:2066600004FB07F50895002593F80280B542C0DA93F800A05344514493F801A089B2BAF156
:20668000050FF3D1BE4541D0029CC64614704FF004045470039C82F802805471049C82F85B
:2066A00003909471059C1671D471069C147201240794089C93F800A004EBC50C0BF80CA0AF
:2066C0000BEB0C0493F801C0013584F801C093F802C06DB284F802C093F803C084F803C0BE
:2066E00093F805A093F804C00CEB0A2CA4F804C093F806C084F806C093F805C01C7904EB27
:206700000C24A4B24FF0010C0194AFE75C7993F804A00AEB042A019C54453FF76AAF029C32
:2067200082F8028014704FF004045470039C82F803905471049C16719471059CD471069CA9
:206740001472B6E700205BE7FC20002073B50C4E154633680192009300224FF400730C46B0
:20676000FFF764FE48B93368009504F1500204F13E0104F13400FFF713FF02B070BD00BF46
:206780003020002031323A35363A303200417567202034203230323200332E3335000000A5
:2067A0002110422063308440A550C660E770088129914AA16BB18CC1ADD1CEE1EFF1311296
:2067C000100273325222B5529442F772D662399318837BB35AA3BDD39CC3FFF3DEE3622456
:2067E000433420040114E664C774A44485546AA54BB528850995EEE5CFF5ACC58DD5533656
:20680000722611163006D776F6669556B4465BB77AA719973887DFF7FEE79DD7BCC7C44895
:20682000E5588668A7784008611802282338CCC9EDD98EE9AFF9488969990AA92BB9F55A95
:20684000D44AB77A966A711A500A333A122AFDDBDCCBBFFB9EEB799B588B3BBB1AABA66CD5
:20686000877CE44CC55C222C033C600C411CAEED8FFDECCDCDDD2AAD0BBD688D499D977E55
:20688000B66ED55EF44E133E322E511E700E9FFFBEEFDDDFFCCF1BBF3AAF599F788F889114
:2068A000A981CAB1EBA10CD12DC14EF16FE18010A100C230E3200450254046706760B983B5
:2068C0009893FBA3DAB33DC31CD37FE35EF3B1029012F322D2323542145277625672EAB535
:2068E000CBA5A89589856EF54FE52CD50DC5E234C324A01481046674476424540544DBA775
:20690000FAB79987B8975FE77EF71DC73CD7D326F2369106B01657667676154634564CD974
