:020000040000FA
:0400000080313D28E6
:10000800FE00030EFF0008082000B5000408AB003E
:100018000508AA007908B0007A08B1007508AE0092
:100028007608AF007008AD000A08AC008A0121000C
:10003800911E24282000911E24280424911224288B
:1000480020002B0884002A0885003008F9003108B0
:10005800FA002E08F5002F08F6002D08F0002C08ED
:100068008A00350888007F0E8300FE0E7E0E090088
:10007A00E223C923F6238B170B17361421008C159C
:10008A008D138D168C168C140C140C12FF308E00E6
:10009A000C1522000C122100911601302000A60036
:1000AA00A7010130A800A9010630B300A730A100BA
:1000BA000330A200A401B411361C8B1336188B1717
:1000CA008C1968286528B4108C18B41434110C18CB
:1000DA003415341DD72AB701B418B70AB709371C23
:1000EA0096280E08B2000130A300BC2336108B1BE1
:1000FA0036148B1322000C1620008C1D85288128AB
:10010A0022000C122000361C8B1336188B178C1900
:10011A008F288C28B4108C18B41434110C18341588
:10012A006E280E08A000A008031DE129010048302E
:10013A00260784002030273D85000A3080000130E0
:10014A002607B7000030273DB8003708F500380801
:10015A00F600A730F9000330FA0039247008A60027
:10016A007108A7004830260784002030273D850003
:10017A000D30800001302607B7000030273DB80057
:10018A003708F5003808F600A730F9000330FA00FE
:10019A0039247008A6007108A70048302607840091
:1001AA002030273D85005230800001302607B700F5
:1001BA000030273DB8003708F5003808F600A730A8
:1001CA00F9000330FA0039247008A6007108A70064
:1001DA004830260784002030273D850045308000BE
:1001EA0001302607B7000030273DB8003708F50070
:1001FA003808F600A730F9000330FA0039247008ED
:10020A00A6007108A7004830260784002030273D41
:10021A0085005330800001302607B7000030273DA3
:10022A00B8003708F5003808F600A730F90003309F
:10023A00FA0039247008A6007108A700483026077A
:10024A0084002030273D8500453080000130260794
:10025A00B7000030273DB8003708F5003808F60027
:10026A00A730F9000330FA0039247008A600710893
:10027A00A7004830260784002030273D85005430E7
:10028A00800001302607B7000030273DB800370844
:10029A00F5003808F600A730F9000330FA003924CF
:1002AA007008A6007108A70048302607840020308D
:1002BA00273D85002030800001302607B700003036
:1002CA00273DB8003708F5003808F600A730F900CE
:1002DA000330FA0039247008A6007108A7004830D4
:1002EA00260784002030273D85004F3080000130EA
:1002FA002607B7000030273DB8003708F500380850
:10030A00F600A730F9000330FA0039247008A60075
:10031A007108A7004830260784002030273D850051
:10032A004B30800001302607B7000030273DB80067
:10033A003708F5003808F600A730F9000330FA004C
:10034A0039247008A6007108A700483026078400DF
:10035A002030273D85000A30800001302607B7008B
:10036A000030273DB8003708F5003808F600A730F6
:10037A00F9000330FA0039247008A6007108A700B2
:10038A004830260784002030273D85000D30800044
:10039A0001302607B7000030273DB8003708F500BE
:1003AA003808F600A730F9000330FA00392470083B
:1003BA00A6007108A700BC2A2003031DEB290130FF
:1003CA00A600A7010130A800A901BC2A0230200218
:1003DA00031DFC290130A4009830A1000330A200BB
:1003EA000130A600A7010130A800A901BC2A0330E8
:1003FA002002031D0C2AA401A730A1000330A20089
:10040A000130A600A7010130A800A901BC2A0A30C0
:10041A002002031D1C2A293023009B0068309C00FF
:10042A0001302000B300883100208231BC2A0B3011
:10043A002002031D2C2A043023009B000D309C004F
:10044A0002302000B300883100208231BC2A0C30EF
:10045A002002031D3C2A403023009B0003309C00ED
:10046A0003302000B300883100208231BC2A0D30CD
:10047A002002031D4C2A9F3023009B0001309C0060
:10048A0004302000B300883100208231BC2A0E30AB
:10049A002002031D5B2ACF3023009B009C010530FC
:1004AA002000B300883100208231BC2A0F3020029C
:1004BA00031D6A2A893023009B009C010630200014
:1004CA00B300883100208231BC2A10302002031D7B
:1004DA00792A443023009B009C0107302000B30096
:1004EA00883100208231BC2A11302002031D882A5B
:1004FA00213023009B009C0108302000B300883182
:10050A0000208231BC2A12302002031D972A1030A3
:10051A0023009B009C0109302000B3008831002091
:10052A008231BC2A13302002031DA62A0C30230074
:10053A009B009C010A302000B300883100208231E0
:10054A00BC2A14302002031DB52AFF3023009B0069
:10055A009C010B302000B300883100208231BC2A74
:10056A001E302002031DBC2A883100208231361039
:10057A008B1B36148B1322000C1620008C1DC62AE6
:10058A00C22A22000C122000361C8B1336188B1735
:10059A008C19D02ACD2AB4108C18B41434110C1822
:1005AA0034156E2821008E0120002403031D292BF7
:1005BA002808F5002908F6002608F9002708FA0095
:1005CA001F24701C1D2B36108B1B36148B13023004
:1005DA00B2000130A300BC230130A600A7010130FC
:1005EA00A800A9012608F9002708FA002108F50041
:1005FA002208F6002A24F009701C102BA223483086
:10060A00260784002030273D850025088000A60A99
:10061A000319A70AF72A361C8B1336188B170130D1
:10062A002107A6000030223DA7000130A800A90139
:10063A004830280784002030293D85000008A000A2
:10064A00A80A0319A90A552BB418452B48302807BC
:10065A0084002030293D85000008A000A80A03195B
:10066A00A90A2808F9002908FA002108F500220831
:10067A00F6002A24701C442B0130A800A901552B2E
:10068A002608F5002708F6002808F9002908FA00C4
:10069A001F24701C532B0130A000552BFF30A000E3
:1006AA0036108B1B36148B1322000C1121000C15EB
:1006BA00200020088E0022000C160C168C12200036
:1006CA000C19872B21008C1622008C1220000C1981
:1006DA00872B21008C1622008C1220000C19872BE4
:1006EA0021008C1622008C1220000C19872B210065
:1006FA008C1622008C1220000C19872B21008C16D4
:10070A0022008C12FF3021008E008C1620008C1DD6
:10071A008F2B8B2B22000C122000361C8B133618C1
:10072A008B178C19992B962BB4108C18B41434117E
:10073A000C1834156E286300A02B0130A300A823DF
:10074A003208A50008002303031DBA2BFF30B200AC
:10075A00911EAD2B911EB52B230019082000B20063
:10076A0023009D1CBA2B1D121D162000080023030E
:10077A00031DC82B111EBF2B320823009A009E1C92
:10078A00C42B200008000800B4128B1BB4168B136C
:10079A0055303C008F00AA308F000F1009303D0001
:1007AA009F0055303C008F00AA308F000F142000A4
:1007BA00B41E8B13B41A8B17080021001917991647
:1007CA001916991199179E131D1023008C018D017A
:1007DA008E0122009313911320008C018D018E014A
:1007EA0008000130A300443023009B009C019F15A0
:1007FA001E151E129E169D171D1620000800A22304
:10080A004830260784002030273D850025088000CF
:10081A00A60A0319A70A2608F9002708FA002108D8
:10082A00F5002208F6002A24701C1E2C0130A600AE
:10083A00A7010800F00175087902031D080076086F
:10084A007A02031D0800F0090800F00176087A020E
:10085A00031C08007A087602031C372C79087502F3
:10086A0003180800F00908007508F7007608F80070
:10087A007908FB007A08FC00F201F3017B08F50015
:10088A007C08F600F901FA011F24701C4F2CF501AF
:10089A00F60108001030F4000310F70DF80DF20D00
:1008AA00F30D7B08F2027C08F33B77140318622CE1
:1008BA0077107B08F2077C08F33DF40B512C77087C
:1008CA00F5007808F6007208F0007308F1000800D5
:101000004830260784002030273D85000D308000C1
:1010100001302607B7000030273DB8003708F5003B
:101020003808F600A730F9000330FA00843139247B
:1010300088317008A6007108A70048302607840090
:101040002030273D85000A30800001302607B70098
:101050000030273DB8003708F5003808F600A73003
:10106000F9000330FA008431392488317008A60071
:101070007108A7004830260784002030273D8500EE
:101080005330800001302607B7000030273DB800FC
:101090003708F5003808F600A730F9000330FA00E9
:1010A0008431392488317008A6007108A7004830BF
:1010B000260784002030273D850050308000013015
:1010C0002607B7000030273DB8003708F50038087C
:1010D000F600A730F9000330FA0084313924883152
:1010E0007008A6007108A700483026078400203049
:1010F000273D85004530800001302607B7000030CD
:10110000273DB8003708F5003808F600A730F90089
:101110000330FA008431392488317008A600710840
:10112000A7004830260784002030273D8500453041
:10113000800001302607B7000030273DB80037088F
:10114000F5003808F600A730F9000330FA008431C2
:10115000392488317008A6007108A7004830260796
:1011600084002030273D8500443080000130260770
:10117000B7000030273DB8003708F5003808F60002
:10118000A730F9000330FA0084313924883170081F
:10119000A6007108A7004830260784002030273DAC
:1011A00085003A30800001302607B7000030273D27
:1011B000B8003708F5003808F600A730F90003300A
:1011C000FA008431392488317008A6007108A7001C
:1011D0003303031D43294830260784002030273D70
:1011E00085003330800001302607B7000030273DEE
:1011F000B8003708F5003808F600A730F9000330CA
:10120000FA008431392489317008A6007108A700DA
:101210004830260784002030273D8500303080008C
:1012200001302607B7000030273DB8003708F50029
:101230003808F600A730F9000330FA008431392469
:1012400089317008A6007108A7004830260784007D
:101250002030273D85003030800001302607B70060
:101260000030273DB8003708F5003808F600A730F1
:10127000F9000330FA008431392489317008A6005E
:101280007108A700582F02303302031DBC294830D3
:10129000260784002030273D850032308000013051
:1012A0002607B7000030273DB8003708F50038089A
:1012B000F600A730F9000330FA008431392489316F
:1012C0007008A6007108A700483026078400203067
:1012D000273D85003430800001302607B7000030FC
:1012E000273DB8003708F5003808F600A730F900A8
:1012F0000330FA008431392489317008A60071085E
:10130000A7004830260784002030273D8500303074
:10131000800001302607B7000030273DB8003708AD
:10132000F5003808F600A730F9000330FA008431E0
:10133000392489317008A6007108A70048302607B3
:1013400084002030273D85003030800001302607A2
:10135000B7000030273DB8003708F5003808F60020
:10136000A730F9000330FA0084313924893170083C
:10137000A6007108A700582F03303302031D352A39
:101380004830260784002030273D85003930800012
:1013900001302607B7000030273DB8003708F500B8
:1013A0003808F600A730F9000330FA0084313924F8
:1013B00089317008A6007108A7004830260784000C
:1013C0002030273D85003630800001302607B700E9
:1013D0000030273DB8003708F5003808F600A73080
:1013E000F9000330FA008431392489317008A600ED
:1013F0007108A7004830260784002030273D85006B
:101400003030800001302607B7000030273DB8009B
:101410003708F5003808F600A730F9000330FA0065
:10142000843139248A317008A6007108A700483039
:10143000260784002030273D8500303080000130B1
:101440002607B7000030273DB8003708F5003808F8
:10145000F600A730F9000330FA00843139248A31CC
:101460007008A6007108A700582F04303302031D2E
:10147000CB2A4830260784002030273D85003130B4
:10148000800001302607B7000030273DB80037083C
:10149000F5003808F600A730F9000330FA0084316F
:1014A00039248A317008A6007108A7004830260741
:1014B00084002030273D8500393080000130260728
:1014C000B7000030273DB8003708F5003808F600AF
:1014D000A730F9000330FA00843139248A317008CA
:1014E000A6007108A7004830260784002030273D59
:1014F00085003230800001302607B7000030273DDC
:10150000B8003708F5003808F600A730F9000330B6
:10151000FA00843139248A317008A6007108A700C6
:101520004830260784002030273D85003030800079
:1015300001302607B7000030273DB8003708F50016
:101540003808F600A730F9000330FA008431392456
:101550008A317008A6007108A70048302607840069
:101560002030273D85003030800001302607B7004D
:101570000030273DB8003708F5003808F600A730DE
:10158000F9000330FA00843139248A317008A6004A
:101590007108A700582F05303302031D612B483016
:1015A000260784002030273D85003330800001303D
:1015B0002607B7000030273DB8003708F500380887
:1015C000F600A730F9000330FA00843139248A315B
:1015D0007008A6007108A700483026078400203054
:1015E000273D85003830800001302607B7000030E5
:1015F000273DB8003708F5003808F600A730F90095
:101600000330FA00843139248B317008A600710848
:10161000A7004830260784002030273D850034305D
:10162000800001302607B7000030273DB80037089A
:10163000F5003808F600A730F9000330FA008431CD
:1016400039248B317008A6007108A700483026079E
:1016500084002030273D850030308000013026078F
:10166000B7000030273DB8003708F5003808F6000D
:10167000A730F9000330FA00843139248B31700827
:10168000A6007108A7004830260784002030273DB7
:1016900085003030800001302607B7000030273D3C
:1016A000B8003708F5003808F600A730F900033015
:1016B000FA00843139248B317008A6007108A70024
:1016C000582F07303302031D142C4830260784009E
:1016D0002030273D85003130800001302607B700DB
:1016E0000030273DB8003708F5003808F600A7306D
:1016F000F9000330FA00843139248B317008A600D8
:101700007108A7004830260784002030273D850057
:101710003130800001302607B7000030273DB80087
:101720003708F5003808F600A730F9000330FA0052
:10173000843139248B317008A6007108A700483025
:10174000260784002030273D850035308000013099
:101750002607B7000030273DB8003708F5003808E5
:10176000F600A730F9000330FA00843139248B31B8
:101770007008A6007108A7004830260784002030B2
:10178000273D85003230800001302607B700003049
:10179000273DB8003708F5003808F600A730F900F3
:1017A0000330FA00843139248B317008A6007108A7
:1017B000A7004830260784002030273D85003030C0
:1017C000800001302607B7000030273DB8003708F9
:1017D000F5003808F600A730F9000330FA0084312C
:1017E00039248B317008A6007108A70048302607FD
:1017F00084002030273D85003030800001302607EE
:10180000B7000030273DB8003708F5003808F6006B
:10181000A730F9000330FA00843139248C31700884
:10182000A6007108A700582F06303302031DAA2C0A
:101830004830260784002030273D85003530800061
:1018400001302607B7000030273DB8003708F50003
:101850003808F600A730F9000330FA008431392443
:101860008C317008A6007108A70048302607840054
:101870002030273D85003730800001302607B70033
:101880000030273DB8003708F5003808F600A730CB
:10189000F9000330FA00843139248C317008A60035
:1018A0007108A7004830260784002030273D8500B6
:1018B0003630800001302607B7000030273DB800E1
:1018C0003708F5003808F600A730F9000330FA00B1
:1018D000843139248C317008A6007108A700483083
:1018E000260784002030273D8500303080000130FD
:1018F0002607B7000030273DB8003708F500380844
:10190000F600A730F9000330FA00843139248C3115
:101910007008A6007108A700483026078400203010
:10192000273D85003030800001302607B7000030A9
:10193000273DB8003708F5003808F600A730F90051
:101940000330FA00843139248C317008A600710804
:10195000A700582F08303302031D5D2D483026079D
:1019600084002030273D850032308000013026077A
:10197000B7000030273DB8003708F5003808F600FA
:10198000A730F9000330FA00843139248C31700813
:10199000A6007108A7004830260784002030273DA4
:1019A00085003330800001302607B7000030273D26
:1019B000B8003708F5003808F600A730F900033002
:1019C000FA00843139248C317008A6007108A70010
:1019D0004830260784002030273D850030308000C5
:1019E00001302607B7000030273DB8003708F50062
:1019F0003808F600A730F9000330FA0084313924A2
:101A00008D317008A6007108A700483026078400B1
:101A10002030273D85003430800001302607B70094
:101A20000030273DB8003708F5003808F600A73029
:101A3000F9000330FA00843139248D317008A60092
:101A40007108A7004830260784002030273D850014
:101A50003030800001302607B7000030273DB80045
:101A60003708F5003808F600A730F9000330FA000F
:101A7000843139248D317008A6007108A7004830E0
:101A8000260784002030273D85003030800001305B
:101A90002607B7000030273DB8003708F5003808A2
:101AA000F600A730F9000330FA00843139248D3173
:101AB0007008A6007108A700582F09303302031DD3
:101AC000102E4830260784002030273D8500343012
:101AD000800001302607B7000030273DB8003708E6
:101AE000F5003808F600A730F9000330FA00843119
:101AF00039248D317008A6007108A70048302607E8
:101B000084002030273D85003630800001302607D4
:101B1000B7000030273DB8003708F5003808F60058
:101B2000A730F9000330FA00843139248D31700870
:101B3000A6007108A7004830260784002030273D02
:101B400085003030800001302607B7000030273D87
:101B5000B8003708F5003808F600A730F900033060
:101B6000FA00843139248D317008A6007108A7006D
:101B70004830260784002030273D8500383080001B
:101B800001302607B7000030273DB8003708F500C0
:101B90003808F600A730F9000330FA008431392400
:101BA0008D317008A6007108A70048302607840010
:101BB0002030273D85003030800001302607B700F7
:101BC0000030273DB8003708F5003808F600A73088
:101BD000F9000330FA00843139248D317008A600F1
:101BE0007108A7004830260784002030273D850073
:101BF0003030800001302607B7000030273DB800A4
:101C00003708F5003808F600A730F9000330FA006D
:101C1000843139248E317008A6007108A700582F2E
:101C20000A303302031DC32E4830260784002030BB
:101C3000273D85003530800001302607B700003091
:101C4000273DB8003708F5003808F600A730F9003E
:101C50000330FA00843139248E317008A6007108EF
:101C6000A7004830260784002030273D8500373004
:101C7000800001302607B7000030273DB800370844
:101C8000F5003808F600A730F9000330FA00843177
:101C900039248E317008A6007108A7004830260745
:101CA00084002030273D8500363080000130260733
:101CB000B7000030273DB8003708F5003808F600B7
:101CC000A730F9000330FA00843139248E317008CE
:101CD000A6007108A7004830260784002030273D61
:101CE00085003030800001302607B7000030273DE6
:101CF000B8003708F5003808F600A730F9000330BF
:101D0000FA00843139248E317008A6007108A700CA
:101D10004830260784002030273D85003030800081
:101D200001302607B7000030273DB8003708F5001E
:101D30003808F600A730F9000330FA00843139245E
:101D40008E317008A6007108A7004830260784006D
:101D50002030273D85003030800001302607B70055
:101D60000030273DB8003708F5003808F600A730E6
:101D7000F9000330FA00843139248E317008A6004E
:101D80007108A700582F0B303302031D582F48301D
:101D9000260784002030273D850033308000013045
:101DA0002607B7000030273DB8003708F50038088F
:101DB000F600A730F9000330FA00843139248E315F
:101DC0007008A6007108A70048302607840020305C
:101DD000273D85003130800001302607B7000030F4
:101DE000273DB8003708F5003808F600A730F9009D
:101DF0000330FA00843139248E317008A60071084E
:101E0000A7004830260784002030273D8500323067
:101E1000800001302607B7000030273DB8003708A2
:101E2000F5003808F600A730F9000330FA008431D5
:101E300039248F317008A6007108A70048302607A2
:101E400084002030273D8500353080000130260792
:101E5000B7000030273DB8003708F5003808F60015
:101E6000A730F9000330FA00843139248F3170082B
:101E7000A6007108A7004830260784002030273DBF
:101E800085003030800001302607B7000030273D44
:101E9000B8003708F5003808F600A730F90003301D
:101EA000FA00843139248F317008A6007108A70028
:101EB0004830260784002030273D85000D30800003
:101EC00001302607B7000030273DB8003708F5007D
:101ED0003808F600A730F9000330FA0084313924BD
:101EE0008F317008A6007108A700483026078400CB
:101EF0002030273D85000A30800001302607B700DA
:101F00000030273DB8003708F5003808F600A73044
:101F1000F9000330FA00843139248F317008A600AB
:061F20007108A700080093
:020000040001F9
:04000E00A43FFF1EEE
:00000001FF
