:020000040800F2
:20000000D006002025170008A9010008A9010008A9010008A9010008A9010008A90100087A
:20002000A9010008A9010008A90100082D020008A9010008A9010008A9010008A9010008AB
:20004000A9010008A9010008A9010008A9010008A9010008A9010008A9010008A901000810
:20006000A9010008A9010008A9010008A9010008A9010008A9010008A9010008A9010008F0
:20008000A9010008A9010008A9010008A9010008A9010008A9010008A9010008A9010008D0
:2000A000A9010008A9010008A9010008A9010008A9010008A9010008A9010008A9010008B0
:2000C000A9010008151D000861250008A9010008A9010008A9010008A9010008A90100082C
:2000E000A9010008A9010008A9010008A9010008A9010008A9010008A9010008A901000870
:20010000A9010008A901000825120008A9010008A9010008A9010008A9010008A9010008C2
:20012000A9010008A9010008A9010008A9010008A9010008A9010008A9010008A90100082F
:20014000A9010008A9010008A9010008153D0008A9010008A9010008A9010008A901000867
:20016000A9010008A9010008A9010008A9010008A9010008A9010008A9010008A9010008EF
:20018000A9010008A9010008A9010008A9010008A9010008A9010008A9010008A9010008CF
:2001A000A9010008A90100082DE9F04F684600F07DBE01B0BDE8F08F2DE9F14FC0F800D0FA
:2001C00010468847009A00211160FFF7F2BF000038B5036804461BB3EFF314839D0702D5C3
:2001E000104B186000DFEFF309814FF0FF330B600D4B8B61CB6903F08073CB61226850079A
:20020000A2F1200542BF43F40073A2F12405CB612022284601F07BF885F3098800232360D0
:2002200038BD00BFD0060020B301000810B5034C2068FFF7CDFF0023236010BDD006002091
:2002400010B5084C0346014410468B4200D110BD13F8012B82EA102234F8122082EA002275
:2002600090B2F2E78262000813B500230446ADF8063000F0B1F804F17C0202210DF1060034
:2002800000F0CAF802B010BDF8B5104C104F4FF6FF75B4F87C30AB42264608D12388AB42EA
:2002A00011D02378022B07D02046FFF7DDFF8034BC42EED1002606E02A4680212046FFF79C
:2002C000BFFF0028F0D13046F8BD00BF00F8030800000408F8B5FFF7D7FF0446002868D05B
:2002E00005884FF6FF73ED1A18BF0125324B45220021184600F0F2FF03466FF037060A275C
:200300001E76DF7607266FF047079E76DF7783F82E600B270C260222462183F8207083F832
:20032000336050278F2602704170C274FF21027583F8297001222C2783F834601F4E817017
:20034000427583F82B703C206FF02F07987583F82D70002037683679DA75587683F827206D
:2003600083F82A0083F82C2083F82F2083F83020C3F8357083F83960588783F83C0083F8F7
:200380003E2083F83F1083F8411083F8421083F8431083F8451075B16278022A0BD9462A7E
:2003A00028BF4622A11C981C023ABDE8F84000F062BF05469AE7F8BDD406002082640008EA
:2003C000044A136813F00103FBD1342111605360704700BF0C3C0240054B1A69120641BF1D
:2003E000044A5A6002F188325A60FFF7E9BF00BF003C02402301674508B5FFF7E1FF054B00
:2004000098605A6842F042025A60BDE80840FFF7D7BF00BF0C3C024070B50C461546FFF768
:20042000CFFF094E2D1A0444844205EB000200D170BD736843F00103736030F8023B138075
:20044000FFF7BEFFF0E700BF0C3C024030B1044B044A1B681070181FFFF7BABE704700BF2D
:20046000040000201C07002010B5084C23680A46191D216001461846FFF79EFE2368043B69
:200480002360034B002218781A7010BD040000201C07002070B505460E46144600F0A6FF68
:2004A00008B104F0010422463146284602F0ACFFBDE87040FFF7CABFF7B51C4601AB0F46BD
:2004C000154602F0E5FF064601982CB120603046FFF7BCFF03B0F0BDA842F8D22A1A2146C3
:2004E000384400F0FBFEF2E708B503F061F8BDE80840FFF7ABBF08B503F0F1F8BDE80840E2
:20050000FFF7A4BF08B503F059FABDE80840FFF79DBF08B503F03AFABDE80840FFF796BF24
:2005200010B9024B187870470120704708000020044B1B78DB075DBF034B1869C0F340209C
:200540000020704708000020000802400020704738B5064C064DA268FF21284600F01CFB4A
:20056000C0B2FF2801D0A368F6E738BD10E000E00038004010B5084C204600F0EDFA074B44
:200580004FF4805220469A61FF2100F005FB2046BDE8104000F0E0BA003800400004024032
:2005A00070B50E46044690B300224FF40071FFF747FE0546FFF7CCFFFF282AD11748314620
:2005C00000F0E3FAFD2E26D0144800F0CEFA04F5007623461148198849BA023489B200F0E3
:2005E000D4FAA642F5D10D4800F0B6FA29460B4800F0CBFA094800F0C0FA0848FF2100F0B8
:20060000CBFA00F01F00431F5842584170BD0546D0E70020FAE70120F8E700BF003800400A
:200620002DE9F341234EDFF89480B76804460D462148FF2100F0B0FAC0B2FF2807D1B368A9
:20064000FB1A23F07F434345F2D300202FE0FE28FBD1194800F089FA6619B6B216484FF6E4
:20066000FF7100F099FA030A04F8023BA3B2B34204F8010CF2D14FF6FF710F4800F08CFAA9
:2006800040BAADF8040000222946601BFFF7D8FD0221024601A8FFF7D3FD0446064800F07E
:2006A0005BFA054800F069FAB4FA84F0400902B0BDE8F08110E000E00038004080EE360026
:2006C0002DE9F04FDFF8E0B085B006460C460F0EC1F30748C1F307290325320609D4304AD0
:2006E0004FF080539361FFF733FFFF280BD0FF2006E000217720FFF7E3FF30F00103EED053
:2007000005B0BDE8F08F06F07F0302A88DF808308DF809708DF80A808DF80B908DF80C4023
:20072000062100230246013911F0FF014FEA43032FD143F001031B488DF80D304FF0060AC2
:2007400012F8011B019200F020FA0AF1FF3313F0FF0A1448019AF3D100F0FEF9114A4FF061
:200760000A0AFF21104600F017FA0306014605D50AF1FF3313F0FF0A0A4AF2D111F0880FDC
:20078000C8B2BDD0013D15F0FF05B9D0FFF7F2FEA3E710F801CB8CEA03031BF80330C2E7D3
:2007A0000004024000380040D06400082DE9F74F894615461E4600285BD1002B59D02F4F2F
:2007C0003B78DA0757D42E4B1A7812F0040F9A4608BF6D024FF00308012E0ED129465820E5
:2007E000FFF76EFF044680BBFE214846FFF7D8FE002838D1FFF7BEFE27E09AF800309B074A
:200800001DD129465920FFF75BFF0446E8B94B46B346FC2118460193FFF7C2FE18B1BBF103
:20082000010B019B1CD1FD210020FFF7B9FE0028E0D0FFF79FFEBBF1000F06D115E03146CF
:20084000D720FFF73DFF0028DBD008F1FF3818F0FF08C1D13B7843F001033B70012404E02D
:2008600003F50073D5E7FFF785FE204603B0BDE8F08F0424F9E70324F7E700BF08000020A7
:2008800028070020F0B5044685B0002840F0DF80704D2B7843F001006F4B28701B699A0525
:2008A00040F19D806D4A6E48136C6E4E43F4804313640C21812200F027FB694802220D21EC
:2008C00000F022FB664820220E2100F01DFB644802220F2100F018FB4FF45D737460304684
:2008E000336000F039F90A24FF213046013C00F053F914F0FF04F7D121464020FFF7E0FE9C
:200900000128014652D17B20FFF7DAFE20F00406012E4BD14FF4D5714820FFF7D1FE012897
:2009200061D1504F0426FF21384600F035F9013EC0B240EA042416F0FF06A4B2F3D1C4F321
:200940000804B4F5D57F31D1474CA2684FF08041E920FFF7B5FE0146002842D17A20FFF72B
:20096000AFFE18BBFF213F4800F016F9FF2104463C4800F011F9FF213A4800F00DF9394850
:20098000FF2100F009F9230610D514F0400F374B14BF072203221A704FF400715020FFF79D
:2009A0008FFE18B92B7823F001032B70FFF7E2FD29782C4E11F001042DD10A2000F062FA1A
:2009C0004FF45173336021464A20FFF779FE18B910216846FFF724FEFFF7CCFD287805B063
:2009E000F0BDA368B2E7214F02232146E9203B70FFF766FE1C4C30F0010318BF3E70A26881
:200A000014BF4126E92600213046FFF759FE0028C2D0A368F7E7114A114800233360136C1D
:200A200023F4804313640C21202200F06DFA0C4820220D2100F068FA094820220E2100F0D7
:200A400063FA074820220F2100F05EFAC6E70420C5E700BF08000020000802400038024008
:200A6000000402400038004010E000E02807002038B50C46D0B90E4D2B78DB0714D4A9B9A7
:200A80000C4B4FF080529A61FFF762FDFF2808D0FFF770FD2B7843F001032B70012420463C
:200AA00038BDFFF767FDFAE70324F8E70424F6E708000020000402402DE9F74F894690468C
:200AC0001D46002840D1002B3ED0214E3378DA073CD4204B1B785B0758BF4FEA4828012DE8
:200AE0008CBF4FF0520A4FF0510A032741465046FFF7E6FD0446B8B94B46AB464FF4007165
:200B000018460193FFF78CFD18B1BBF1010B019B17D1012D03D900214C20FFF7D1FDFFF70E
:200B200029FDBBF1000F08D0013F17F0FF07DDD1337843F0010333700124204603B0BDE899
:200B4000F08F03F50073D9E70424F6E70324F4E70800002028070020836803F08203022BDD
:200B600001D1C368704700BFF6E708B5FFF7F4FF036843F40063036008BD08B5FFF7ECFFB4
:200B8000036823F40063036008BD83689B0701D5C160704700BFF8E783689A0706D5C160E7
:200BA0008368DB07FCD5C06880B2704700BFF3E703688B4238BF1A7003680133036070477B
:200BC0002DE9F04F87B01D464B1E8046174602900093C118BA461AF8012B52B9029B8B42E9
:200BE00000F2FA801A700298A0EB080007B0BDE8F08F252A04D002A8FFF7DAFF5746E9E7EE
:200C0000002634461CE0A2F16303152B26D8DFE803F072562525253E562525252525491169
:200C200025255B2558252511392A21D9582A15D144F4807444F0100436E055F8046BBA462C
:200C4000574617F8012B782A08D8622ADBD8302A0BD0E9D8232A05D02A2AEED002A8FFF731
:200C6000A7FFB7E744F48064E9E744F40064E6E7A2F130063A4612F8013BA3F13000092857
:200C8000DDD80A2000FB0636303E1746F2E79AF80130682B06BF44F480540AF1020744F437
:200CA0000054CCE744F00804E30455F8049B04F4007224D55FFA89F924F4007432E044F406
:200CC000007444F00A04EFE755F8044B2644A6EB040A14F8012B52B9BAF1000F7FF77AAF47
:200CE000202202A8FFF764FF0AF1FF3AF4E702A8FFF75EFFEBE755F8042BD2B2AEE7A00498
:200D000037D59AB30FFA89F9B9F1000FD4DA230505D52D2202A8FFF74BFF24F40074013E82
:200D2000C9F1000960050FD504F01F0ABAF1080F02D0BAF1100F07D1302202A8FFF738FF2B
:200D4000BAF1100F18D0013E0DF10C0AB9F1000F18D130238DF80C300DF10D0B14F4006F4B
:200D600014BF30222022ABEB0A0327E01FFA89F9A2E7002AA0D0C7E7782202A8FFF718FFA5
:200D8000023EE1E7174A184814F4807F08BF1046D34604F01F02B9FBF2FC02FB1C9E10F8D7
:200DA0000EE00BF801EBCE467245E146F3D9D5E702A80193FFF7FCFE019B013EB342F7DB0C
:200DC000A30503D52D2202A8FFF7F2FED3453FF401AF1BF8012DF6E788459CBF009B08F8D8
:200DE000032000E7116F0008006F00080CB407B504AB53F8042B0193FFF7E2FE03B05DF8D3
:200E000004EB02B070470000EFF3088181F30988022181F31488BFF36F8F104B83F30888C6
:200E20000F4B104A9A605A6942F404725A615A6A42F4E0225A624FF07F42DA614FF47F0223
:200E40001A62BFF34F8FBFF36F8FA3F54F636FF07F425A6001221A60704700BFD0020020AD
:200E600000ED00E000000008054A936891685B1A23F07F43984202D9C01A0B46F6E770479C
:200E800010E000E024235843FFF7EEBF48F6A0435843FFF7E9BF000072B6024B024ADA60A8
:200EA000FEE700BF00ED00E00400FA0508B5EFF30383036A5B07EFF309830F4A4ABF2430A6
:200EC00044302033904206D30C4A824203D920F0030082420BD80A4A934206D3094A9A42BF
:200EE00003D923F003039A4203D8FFF7D5FF0430EFE70433F7E700BFD0000020D0020020BC
:200F0000D0020020D0060020D30914BF01234FF480338B40836170B5032306684D00AB4080
:200F200002F0030426EA0306AC4034430460446801268E4024EA0604C2F3800606FA01F1F2
:200F4000214341608468C2F3C10124EA0304A94021438160C168C2F34112AA4021EA0303BA
:200F60001A43C26070BD000008B5FFF74DFF354B35491A6C42F080521A640022C3F8A02023
:200F800001220A6101F5E6310A661A6842F480321A601A6890034FD5D3F8A42042F0300236
:200FA000C3F8A420294A5A604FF410429A601A6842F080721A60234A1346116889013DD5FB
:200FC000916841F0020191609A6802F00C02082A36D11A681E4822F001021A60D3F8A420B2
:200FE00022F03002C3F8A4201A6B42F4800242F087021A631A6C42F00F021A645A6C42F476
:20100000804242F001025A64124A012313600F21C2F800320022FFF777FF0F4800220321E1
:20102000FFF772FF0C4800220421FFF76DFFBFF34F8FBFF36F8F08BD00BFAAE700BFBCE795
:2010400000BFC1E7003802400070004001124100000002400065024000040240072910B587
:201060004FF00F0309D8046A89008B4024EA030302FA01F11943016210BD0839446A890076
:201080008B4024EA030302FA01F119434162F3E7064B074A1B68926803F07F4010438342C1
:2010A00038BF00F17F40C043704700BF2C07002010E000E008B5FFF7EBFF0346C2430448B6
:2010C000044940F8042B1944BDE8084000F03EB82C070020A0FD7F0010B500F091F8094B2B
:2010E000094C9B6844F8043B08492046002200F027F8FFF7CDFF064901442046BDE8104084
:2011000000F024B810E000E02C070020B5100008A0FD7F00094B40F20C420D281A60B8BFFD
:201120000D2007229A620C380122D8625A6100221A6140F20D421A60704700BF000C0040A7
:201140000123C0E90112C36070470000F8B504460D46EFF31186731EDBB23F2B02D940234C
:2011600083F31188E368154F012BF6B207D03B683A469C42D96814D101231160E360256082
:20118000FFF786FF3B680246281A0C4D6BB9E3602C603B68A34201D1FFF7BCFF86F311883E
:2011A000F8BD03F10C020B46E3E71968891A8142EDDA03F10C05DB68E8E700BF4007002072
:2011C00010B5EFF311835A1ED2B23F2A02D9402282F31188DAB2C368012B07D0074B196897
:2011E000CC68884205D11C600123C36082F3118810BD01F10C032146F2E700BF4007002016
:20120000064B00225A600122DA60054B402283F832234FF480225A60704700BF000C004061
:2012200000E100E0F8B50C4B0C4E00221A610127346804B9F8BD2568FFF72AFF281A0C289A
:2012400003DDBDE8F840FFF765BFE3683360E760D4E901309847EBE7000C00404007002040
:201260002DE9F007B1E8F807A0E8F807203AF9D1BDE8F0077047F8B532F01F0706460D4637
:20128000144610D040EA01039B070CD13A46FFF7E7FF3D44F31904F01F04013B2C44A542D4
:2012A00003D13046F8BD3346F7E715F8012B03F8012FF4E72DE9F007CDB24FF001346C43EA
:2012C0002346254626462746A046A146A246A0E8F807203AFBD1BDE8F0077047F8B532F0DD
:2012E0001F0506460F4614460CD083070AD12A46FFF7E0FF04F01F0472191444A24203D197
:201300003046F8BD3246F8E702F8017BF6E7884230B405460C4602D230BCFFF7ACBF144434
:2013200003468218934202D1284630BC704714F8011D02F8011DF5E710B5034602449A42C3
:2013400001D1002005E013F8010B11F8014B001BF5D010BD70B505460024A24201D1002033
:2013600006E02E5D0B5DF01A02D10134002EF4D170BD421E11F8013B02F8013F002BF9D18E
:2013800070470000014B1B685B6818473400002070B50D4B0D4D2B601B6804469847C2077A
:2013A0000DD50B4B1B78012B09D102F0D1FD30B9084E204633689847C30758BF2E602046A8
:2013C000BDE87040FFF7DEBF8800002034000020EC1700200C00002010B4034C2468A4682F
:2013E000A44610BC604700BF34000020014B1B689B6918473400002070B5054C054E064DDB
:201400002046FEF7F9FF33681C44AC42F8D370BD00C000082C00002000F8030808B502F0D2
:2014200069FB054B1B78184300F00303032B14BFC0F38000012008BDB4190020F8B50D4F04
:20144000054600244FF6FF7605206400FFF71EFDA4B24DB102F04EFB3B78034308BF44F046
:201460000104B442F0D1F8BDFFF7D8FF0443A4B2F7E700BFB419002008B5084B1B78012B38
:2014800005D0022B09D1BDE8084001F04FB900F0F1FDBDE8084000F0F5BD08BDF017002031
:2014A00008B50A4A11780129034605D002290BD1BDE8084001F07EB90022062000F0A2FD57
:2014C000BDE8084000F0DEBD08BD00BFF0170020F8B50C4601460E480E4FFFF705F84FF6B8
:2014E000FF750CB92846F8BDB4F5006F264628BF4FF400660648002332463946FEF7DCFF44
:201500002A4631463846FEF79BFEA41B0546E8E744070020640900202DE9F047764E774B34
:20152000774A88B006F5226106F53460FEF7EAFF96F83E3A344633B9012386F8743B0020EA
:2015400008B0BDE8F0876F4A06F63E234FF4807106F67530FFF74AFC06F5226106F5346083
:20156000FEF7D7FF96F83E5A002D47D106F53460FEF7C1FF644886F8745BFFF791FF01224F
:2015800006F675313046FEF785FFF16830460439FEF7AAFF04222B460DEB02013046FEF713
:2015A0008BFFBDF804305BBA44F246629BB2934226D000263746032584F8745B002DBED1DB
:2015C000A6F58063B3F54D3F14D8B30712D1B91949480439FEF788FF2B464748042205A9E0
:2015E000FEF76AFFBDF814305BBA44F259629BB293423BD0032584F8745BA0E702239CE7BF
:2016000029463046FEF770FF0C2202A930462B46FEF752FF3D49042202A8FFF79BFE00286E
:20162000C7D10399049B04310C2202FB0311FFF74FFFB8B930460399FEF756FF2E46274671
:20164000049B9E42B5D200230C2205A93846FEF733FF9DF81430042B02D1DDE90676ABE731
:201660000136EDE72E462F460425A5E72848FFF717FF31463846FFF72BFF00283AD1254890
:20168000DFF89890DFF898A0FFF70AFFFEF7A4FEFFF7B2FE0123204884F8753CFFF700FF52
:2016A00015483946FEF720FFB046B8F5006F474628BF4FF40067104800233A465146FEF783
:2016C000FBFE4A4639465046FEF7A6FE3A4651464846FFF731FE58B9B8EB0708B944E4D194
:2016E0000E484FF6FF723146FEF7AAFD002882D0052580E704257EE744070020226F00082E
:20170000A36F0008346F0008376F00083B6F0008406F0008446F0008486F000800C00008AB
:201720006409002070B553485349884286B003D0524A121AFFF79FFD514C52480021221AFF
:20174000FFF7CCFD5048514B02680021D61A754201602068216075414D4EB0420AD19A4200
:2017600008D04C4A4C4912680968501C01D0954688470125494A1360494A1360FFF7F4FB7D
:20178000FFF7AAFC02F0E6F94DB9FFF747FE30B92660BFF34F8FBFF36F8FFFF77DFB414CF1
:2017A000C820FFF773FBFEF795FD00F093F82578012D35D0022D02D13B48FFF771FE012000
:2017C000FFF75AFE02F0A2FB384802F0B3FB0020FFF734FE0120FFF731FE2178012905D1E5
:2017E000334B4FF0FF32002000F00CFC3148324C324EFFF755FE04F6786531460122284644
:2018000001F0DEFD0146F0B92D48FEF72DFE0346E0B994F8743B53BB0020FFF72DFEBCE768
:20182000284901A8FFF7A5FD002201AB1146104600F0E8FB0022244B2946104600F0E2FB85
:2018400000F020FCBBE702F07BFBD6E71F4A142101A8FFF7CBFA01A8FFF722FE94F8753CB7
:201860000BB1FFF7C9FD0020FFF7E8FDD4E7184AEDE700BF04000020B86F0008D000002002
:2018800000210020D006002000000020EFBEADDE2CBAB53900C0000804C00008D00200205F
:2018A000D0000020F01700204C6F0008BA130020606F00086B6F000844070020A36F000823
:2018C00019150008506F00087D6200086F6F0008756F00082DE9F047214E224D2249B6F80E
:2018E0001F70DFF88C80DFF88CA086B0002301A82B70FFF73EFD4FF00209D8F8084000F053
:20190000D1FB40B1012319492B7001A8FFF731FD06B0BDE8F087B6F825309B070FD0002F97
:20192000F6DD6420FFF7B2FAD8F80830E41A24F07F4448F6A043B4FBF3F43F1BDDE700F00C
:201940006FFF85F8009000F0EBFE52460346142101A8FFF74BFA00F0E3FE0328DFD1D7E7CF
:20196000D4060020F01700207B6F0008806F000810E000E0896F0008024B0422C3F804213A
:20198000704700BF00E100E0F0B50E4A0E4C96680E4F014641F61075A36931EA030301D15C
:2019A000012004E0A069284002D0E5610020F0BD9368F31A23F07F43BB42EDD9044B0122BA
:2019C0001A70F4E710E000E000580040407E0500F417002010B50D4B1C68002A24F0010468
:2019E0001C600CBF00224FF480621C6842EA014242EA400242F0007244F001041C605A60E5
:201A00005A6842F400525A6010BD00BF0058004008B52020FFF7B8FF18B1024B2022DA6161
:201A2000012008BD0058004010B504460220FFF7ABFF10B1014B01209C6210BD00580040C6
:201A400038B50C4611460022FFF7C4FF651814F8010BFFF7E9FF28B1A542F8D1BDE83840FC
:201A6000FFF7D6BF38BD000070B50C4611460122FFF7B0FF074E65180420FFF785FF40B1EF
:201A8000736A04F8013BAC42F6D1BDE87040FFF7BFBF70BD0058004010B50446FFF7C4FF26
:201AA00044F00400FFF7C0FF2046BDE81040FFF7BBBF08B500220121FFF78CFF0020FFF7D6
:201AC000B3FF18B1BDE80840FFF7A2BF08BD30B58B188024994200F1020001D1500030BD79
:201AE00000F8024C11F8015B00F8015CF2E700002DE9F341204F7E78BD78022E80462ED134
:201B00001E490122FFF7E3FFFB78402B18BF0026503D08EB00048DF804608DF805503B798D
:201B2000002B14BFAF23AE232046032201A98DF80630FFF7CCFF124BB3F82530DB060444CD
:201B400005D520460F490522FFF7C1FF0444402304F8013BA4EB080002B0BDE8F0810A497B
:201B60000622FFF7B4FF072308EB00048DF804508DF80530D3E700BFF4170020D0650008FF
:201B8000D4060020D7650008D16500082DE9F0412C4B2D4A197847F6031647F283130229B3
:201BA00018BF1E4692F808310133DBB2012B82F80831144605D14FF0113393600420BDE818
:201BC000F0811379003B18BF0123137292F8093143F04003022953724FF0130393720CBFFE
:201BE00024232223D37292F80A3143F03003137302235373002502F10E0302F20B174FF0FA
:201C0000280846FA05F101F0070194F80921184608FB0171FFF72FFB043594F80921034684
:201C20000C2D1344EDD194F8AB212AB994F8AC210132D2B284F8AC210448022284F80821AD
:201C4000181ABCE738000020F4170020FC17002038B501461648174B90F80821164C5AB9DF
:201C600090F8AB01002244F2A0055A64256040F2912499645C640BE0012A16D10020986532
:201C800048F2A000206040F28120D96598651020FFF7A0FEFFF7FCF900F5DB01BDE838403F
:201CA000064801F5BA41FFF751BA1020DAE700BFF41700200064024000580040A4190020EE
:201CC00030B5134B1B7921F00F041A4353B222430468651C056022700468651C056042F0DA
:201CE000040525700468651C0560227043EA01110368C9B25A1C0260197003685A1C026099
:201D000041F004021A7003685A1C0260197030BDF41700202DE9FF47AB4B9A69900609D555
:201D20002021D961D10608D51022DA61A74B0422C3F8042104B0BDE8F0875E68A44C16F47F
:201D4000806605D0E37A84F8C031FFF71FFFAAE094F8AB3184F80861002BF6D094F8C121B4
:201D6000A378002A00F0D480E278B3EBD20F4FEAD20105D14B1CA37094F8C231002BE4D146
:201D8000A3788B4207D90023A37094F8AC310133DBB284F8AC31A578202A4FEA550721D0D5
:201DA0008C4B197847F2831247F60313022918BF1346894AB2F842204FF6FF718A4204D00B
:201DC00084490978002908BF13464FF0000913F0080814BF0222012291444F4505DBC3F3F8
:201DE0000F13F4E747F21073E3E794F8C32103F00703934273DA7948DFF8F4C1282202FB3D
:201E00000303002284F888202272A0F581700C2194F80921964200F1800A47D302EB4202DB
:201E20005600C6F17F0632460021FFF757FA324600215046FFF752FA694EB8F1000F5FD021
:201E4000B9EB07075CD0012F664B0CBF802700273744EC4603F1100E18685968624603C2BD
:201E6000083373459446F7D115F0010F5E4A07F1800139D117F8013B04A803F00F0303444A
:201E80008F4213F8103C02F8013BF3D15448FFF72FFE3318544980221846FFF7ECF9013568
:201EA0008030A570801BFFF7D3FE43E79A5D203A5F2A28BF0E2201FB02C20630D2F800E040
:201EC00040F806ECB2F804E020F802EC52F806EFC0F87AE09288AAF80420013698E74048D5
:201EE0004FF480720021A5E717F8013B04A800EB13138F4213F8103C02F8013BF4D1C5E729
:201F0000EA07C3D4364980228818FFF7B4F9BDE794F8C32104F108079A42009706D1531C04
:201F2000A37094F8C231002B7FF40FAFA378934207D90023A37094F8AC310133DBB284F807
:201F4000AC3142F2031347F21075022A18BF1D46214BB3F842304FF6FF72934204D01D4AE7
:201F60001278002A08BF1D4694F8028043469B001D416B075FBF194B282205F0070502FBB7
:201F800005351A4B43444FF00002197F684641F0800148BF0025FFF793FE94F809319E4289
:201FA00006D3009808F1010884F80280C01B7AE73DB115F8011B01226846FFF781FE0136E0
:201FC000EBE72021F7E700BF0058004000E100E0F417002038000020D4060020FF18002044
:201FE000FC170020DC6500087C180020D0650008086600080248A0222021FFF76FB900BFD4
:20200000FF180020F0B51A4C282694F8095106FB010104F20B1432EA220228BF2A46214436
:20202000EFF31186741EE4B2CF2C02D9D02484F311885FFA86FC1A44D41A13F8017B27B19F
:20204000A84200F101060CDB30460B19401A20245A1A002A02DD4218954206DC8CF31188D7
:20206000F0BD01F8017B3046E6E701F8014BEFE7F41700200028024B18BF08201871704701
:20208000F4170020064A92F8AC11C9B292F8AC315B1ADBB2012B00D9704700BFF6E700BF83
:2020A000F41700202DE9F04FBB4CBC4A94F8C23194F8AB61BA4D1E4300232370A37084F8CF
:2020C000083184F8C031136C43F48003136485B085220A212846FEF717FF85220B212846E9
:2020E000FEF712FF0A20FEF7CDFE2B695F051BD52B69180518D44FF00063AB614FF080639B
:20210000AB610A20FEF7BEFE4FF48063AB610A20FEF7B8FE4FF40063AB610A20FEF7B2FE50
:202120002B69590548BF2B69002E00F09F809C4804220A21FEF792FF994804220B21FEF7F2
:202140008DFF974806220A21FEF7DEFE062294480B21FEF7D9FE934B934A1A6101221A6021
:20216000002E00F0BC80914BD022022183F82123C3F88411596083F822230422C3F8842106
:202180005A6003F1C04303F5C23313221A6112225A61874ADFF8348243F8B08C43F8B42C12
:2021A000043A43F89C8C834943F8A02C08F5D4700022FEF7C5FFFEF76BFF00F5DB0101F569
:2021C000BA4108F5D470FEF7C1FF94F8C1514746002D00F07581784EB6F8253013F0800381
:2021E00001BF704A1360754B13616578002D40F01E81734BDFF8D8A11A889B788DF8063067
:20220000704BADF804200293A84694F8AB91032201A94846FFF714FC002800F0938102223C
:2022200069464846FFF720FC002800F08B819DF801B01AF8013B04228BEA030302A94846BD
:202240008DF80B30FFF7FCFB002800F07B81B8F1000F02D0AB4540F0E88008F10108B8F100
:20226000030F00F02B819DF80B50CEE74C4840220A21FEF749FE402249480B21FEF744FE58
:202280000A20FEF7FFFD2A692B69520502D51B053FF54DAF454B0222C3F88420BFF34F8FDB
:2022A000BFF36F8F0422C3F88420BFF34F8FBFF36F8F3C4B3A4800241C6020220A21FEF79E
:2022C00023FE374820220B21FEF71EFE334A136C23F480031364204605B0BDE8F08F30461D
:2022E000FFF7E7FB1020FFF7E4FB202584F8C20123781BB1002384F8C231CBE72846FFF76E
:20230000D8FBD8B90135EDB2282DF1D138252378002BEFD12846FFF7CCFB78B90135EDB259
:20232000402DF4D12578002DE4D194F8C231002BE0D0214BB3F825309F07DBD194F8C23155
:2023400023B1214901221020FFF78EFB1A4BB3F8252012F002013DD0012184F8C1119B7E7D
:2023600012F0200F14BF40212021082BE17052D0D10750D412F0080F14BF1223152384F840
:202380000931042384F8C331002D46D084F8AB51FFF730FEE7E600BFF4170020003802405C
:2023A00000040240005800404E4C508000E100E02858004079190008D4060020281B30400D
:2023C000F46500088000C000B8190020FC170020C11C0008D00714D584F8C111C2F3451338
:2023E000102B38BF1023282B28BF282384F80931C2F3C223022B38BF0223042B28BF04231D
:20240000C0E725F001013C290CBF0121002184F8C111A4D0E2E71023B1E784F8C151002A7D
:20242000B6D1282384F80931B2E701236370484948480F22FFF74BFBB6F8253013F0400FA1
:2024400014BFA723A6238DF8083081238DF8093096F834308DF80A30A8238DF80B30E37860
:202460005A1E402B07EB00058DF80C204FF0DA020CBF122302238DF80D2002A9072228469D
:202480008DF80E30FFF723FBB6F82520324B12F0040F05EB000403F102014FF0020218BFDB
:2024A00019462046FFF713FB04442046FFF720FB2044C01BFFF7CCFB01200DE70223B5E7C2
:2024C00094F8AB0110B9FFF761FBF3E72A460C21FFF780FA3020FFF7DFFA41F20400FEF777
:2024E000D1FC3020FFF7D8FA6420FEF7CBFC3020FFF7D2FA2020FFF7CFFAFFF789FA2A46BD
:20250000282102A8CDF80880FFF7DAFB08210DEB01002A46FFF7D4FB2A46062102A8FFF722
:20252000CFFB02A82A460C21FFF7CAFB0298A0EB0800FFF78DFB002EBED1FFF7A3FD0823A6
:202540002371B9E7054B0422C3F80421B4E700BFF7650008FC170020F065000800E100E0E2
:2025600008B50A4B0A489A6941F61072DA61012100221A60196003F503339A655A64FEF7E9
:202580001FFEBDE80840FFF78DBD00BF00580040A41900202DE9F843DFF85C90154E0446FC
:2025A0004FF010084F4632784FF480339340C9F818300220FEF766FC14F4004F727814BF26
:2025C00001234FF480339340BB610220FEF75AFC3378012505FA03F3BB610420FEF752FC3C
:2025E000AC40B8F10108A4B2DDD173789D40BD61BDE8F8833900002000040240014620220B
:202600000148FEF781BC00BF0004024010B50B4C0B4821780522FEF777FC0420FEF732FC5C
:202620002078FFF7EBFF0220FEF72CFC6078FFF7E5FFBDE810400220FEF724BC39000020EC
:20264000000402402DE9F0411B4F1C4E40F480740025B846397805223046FEF755FC022018
:20266000FEF710FCE307797820D50846FFF7C6FF0120FEF707FC012C09D1356998F8011021
:202680000522CD40304605F00105FEF73DFC0120FEF7F8FB98F80000FFF7B0FF0420FEF710
:2026A000F1FB6408D6D12846BDE8F08105223046FEF72AFCDCE700BF3900002000040240BE
:2026C00038B50D4C0D4D217805222846FEF71CFC0420FEF7D7FB2078FFF790FF0220FEF700
:2026E000D1FB284661780522FEF70EFCBDE838400220FEF7C7BB00BF39000020000402408D
:2027000070B506460325FFF7DBFF3046FFF79AFF0446FFF77BFF0CB1013DF4D1204670BD3E
:20272000014B1878704700BFBA190020064B1A78032A05D1002814BF89208020FFF7E0BF95
:2027400000B15888FFF726BFBA19002070B5184B1D78032D044621D1FFF7B2FFC020FFF714
:2027600071FF30B10126FFF751FF0EB1013DF3D170BD2078FFF766FF0028F3D16078FFF700
:2027800061FF0028EED1A078FFF75CFF0028E9D1FFF758FF061E18BF0126E4E7027840783B
:2027A00040EA02205880BDE87040FFF7F3BE00BFBA190020F7B5194900220B88ADF80430AB
:2027C00004468DF8062001A815464026A35C0BB1032A03D1FFF7BAFF03B0F0BDA3F1300704
:2027E000092F05D80B4413F82D3C83540132EDE7A3F16107192F03D80B4413F8543CF4E73F
:20280000A3F14107192F03D80B4413F8343CECE72D2B14BF2B463346E7E700BF7C6A00088C
:2028200010B5164B164C1B78022B04BF06236370607804BF07232370FFF7E0FE2078FFF7D7
:20284000DDFE4020FFF75CFF0E4B48B903221A700D48FFF7AFFFBDE810400120FFF766BFB9
:20286000022261781A7009488122FEF74DFB217806488122FEF748FBEAE700BFC81B00204B
:2028800039000020BA190020A36F00080004024042884378007843EA022340EA0320704739
:2028A00030B54368C47844EA032184781B0C44EA012144781B0243EA116344EA0121047841
:2028C0001B0244EA012043EA116130BD10B50346024413F8010B11F8014B9342A0EB0400DC
:2028E00001D00028F5D010BD03690239023B8B4283BF4389806A01FB0300002070470000CE
:2029000003685A1C02601878A0F16103192B01D8203870477F2882BF024BC01810F8800C22
:20292000704700BFA46A00087FB5044601911D46114629B923785BB955B1012004B070BDA8
:2029400001A8FFF7DDFF01390028F2D10020F5E7019B02940393029B1B783F2B01D02A2B53
:202960001DD100231A460299481C02900E7849783F2E0CBF013201233F29F4D02A29F2D03E
:202980000399FFF7D1FF0028D7D1039B197801A8FFF7B6FF002DD9D00029D9D1D6E702A872
:2029A000FFF7AEFF064603A8FFF7AAFF86420146EDD1002ECFD1C0E702684AB1134613F8D3
:2029C000011B1F290BD93A29F9D1911C8B4202D04FF0FF3070471278302AF9D103600020E0
:2029E000704738B50D46044618B9092000232B6038BD0368002BF8D01A78002AF5D0818811
:202A0000DA889142F1D15878FEF7BCFC10F00100EBD12368EBE7CA7E8B7E032843EA02235A
:202A200001BF487D0A7D42EA002243EA02431846704738B5C36A8B4205460C4611D001232C
:202A40000A4600F130014078FEF7C6FC002818BF4FF0FF340346EC620CBF034601231846F7
:202A600038BD0023FBE7000038B50023C3704FF0FF33C3620446FFF7DCFF002844D194F89F
:202A8000303094F82F5294F82E02EB2B40EA052503D01833DBB2012B2FD84AF655239D422E
:202AA00006D11A49082204F18200FFF70FFF50B394F83C2094F83B3043EA02235A1E1A422F
:202AC0001BD1B3F5007F18D194F83D00A8B1431E184012D194F84030013B012B0DD894F867
:202AE000422094F8413053EA022306D094F8472094F8463053EA022305D14AF65520854296
:202B00000CBF0220032038BD0420FCE79B6F00080129F8B505460C4652D9036999424FD290
:202B20000378022B29D0032B38D0012B48D101EB5106016A01EB5621FFF77BFF10B14FF0F8
:202B4000FF30F8BD771C296AC6F308062E4401EB5721284696F83060FFF76BFF0028EED1FB
:202B6000C7F308073D44E30795F8300046EA00204CBF0009C0F30B00E3E7016A01EB1421EC
:202B8000FFF757FF0028DAD16400303504F4FF742B19285D5B7840EA0320D2E7016A01EBE9
:202BA000D411FFF746FF0028C9D1A40005F1300004F4FE742044FFF76BFE20F07040C0E7D5
:202BC0000120BEE7F8B5066905682036B6F5001F24BF002383618369044663B1C6F308078A
:202BE00007BB41690133836139B92B89B3EB561F18D80023A361042019E06B89013B13EA37
:202C000056230FD12846FFF783FF012801460FD9431C0FD02B699842EBD260612846FFF78F
:202C200063FEA06130353D442661E5610020F8BD0220FCE70120FAE72DE9F04F002387B0F4
:202C40000B600D46FFF7B8FE061EC0F27B81C44F57F82640002C00F077812C60237853B929
:202C60000023F0B223706070FEF792FB10F001050BD0032505E06078FEF784FB10F001056A
:202C8000EED1284607B0BDE8F08F29462046FFF7EBFE022840F03E8194F8F231EE2B40F067
:202CA000168101212046FFF7C4FE002840F02E8104F13009AB4910224846FFF707FE002831
:202CC0003FD1DFF8A8E26FF00F034FF0FF3104F14008032B8CBF18F803C04FF0000C0826A1
:202CE00001220CEA020000280CBF084681F001004108C00748BF81EA0E015200013ED2B260
:202D0000EFD101334C2BE4D104F14000FFF7C0FDC943814215D104F18400FFF7B9FD802829
:202D20000FD104F18000FFF7B3FD8028804608D804F17800FFF7B4FDDFF834B28246464526
:202D400001D10D259DE7C6F39601F301514420460193FFF76EFE002840F0D880019B03F473
:202D6000C07309EB0300102259460193FFF7AEFD019B08B10136E2E703F120004844FFF738
:202D80008FFD01462046FFF76FFE0128F2D894F83C2094F83B3043EA0223B3F5007FD0D1AB
:202DA00094F8470094F8461051EA002104D104F15400FFF76DFD014694F84060D4F82CA079
:202DC0006161731E012BA670BBD894F83D80A4F80A804346002BB4D008F1FF3313EA080FE5
:202DE000AFD194F8423094F8419049EA032919F00F0F0FFA89FBA4F80890A2D194F844303E
:202E000094F8430050EA032003D104F15000FFF73FFD94F83F2094F83E3053EA022390D094
:202E200001FB06FC03EB19126244824289D8A0EB020EC645BEFBF8F683D3DFF838E1764562
:202E40003FF67FAF4FF6F57E76457FD94FF003080AF1FF3E0236704453445244B8F1030FEE
:202E60002661C4F818A0E0612362A26258D194F85B2094F85A3043EA02234BEA030B0FFAA9
:202E80008BF3002B7FF45DAF04F15C00FFF700FDB600606206F2FF16B1EB562F0DD2B8F198
:202EA000010F3FF44EAFB8F1030F4FEA41210CBF04200220B1FBF0F12161BB8884F800801D
:202EC00001339BB2BB80E380274BE360D9E60DF1080804F5FB7104F2362946460846FFF7C7
:202EE000D7FC1031894546F8040BF7D1002658F8041B69B12046FFF7B7FD01287FF647AF88
:202F00000136042EF3D104287FF41BAF0125B8E60320F5E70428F9D001287FF638AF10E7E7
:202F2000B9F1000F3FF40DAF6344B8F1020F63624FEA46031BBF9B1906F001061E4606EB61
:202F40005306A7E70B259CE60C259AE640F6F57846458CBF4FF002084FF0010878E700BFFF
:202F6000C0190020246B0008C61900202083B8ED346B0008F5FFFF0F38B58268056800236A
:202F8000044603619AB92B78022B01D96B6A6BB92B890BB9022038BD6B6AA361A369626156
:202FA000002BF7D03035E5610020F4E71A466B8963B911462068FFF7ABFD431C02460BD00A
:202FC0000128E7D92B699842F3D3E3E711462846FFF78AFCA061E1E70120DCE72DE9F04FC7
:202FE00089B0036801930446894611F8013B2F2BFAD05C2BF8D00023A36099F800301F2B97
:2030000000F2AD818023204684F82B3009B0BDE8F04FFFF7B1BFFF2E00F0C3812BF8160013
:203020000136A0E14A4613782F2B914602F10102F9D05C2BF7D00025ABF10202C6BB002316
:203040002BF81630002E00F0AC813BF8131020291A4603F10103F8D00AB92E2901D145F0DC
:203060000305ABF1020131F816302E2B01D0013EF9D104F12003029304F12B01202003F8FE
:20308000010B8B42FBD14FF000084FF0080A47463BF81200531C10B3202803D02E280FD19E
:2030A000B34211D045F003051A46F1E70425C3E732F81630202B01D02E2BC0D1013EBDE799
:2030C000D04505D2B34263D1BAF10B0F58D102E0BAF10B0F4FD145F003054FF00B0A94F809
:2030E0002030E52B04BF052384F82030BAF1080F04BFBF00FFB207F00C030C2B03D007F0BD
:203100000303032B01D145F00205AB0707D4FE0748BF45F01005780748BF45F0080584F846
:203120002B502046D4F800B0FFF726FF0746002840F0F3804FF0FF334FF0FF0AE362554666
:203140000493A1695846FFF774FC0746002840F0E480E6693378002B00F0EC80F17AE52BC5
:2031600001F03F02A27103D009075BD50F2A5BD0049BE362ACE0B34202D045F00305AED899
:20318000BF00FFB233464FF00B0A4FF008088BE77F2812D945F0020240F2B5110493039242
:2031A00000F01CFC10F0800FDDE903230FD07F4900F07F00085C154628B17D4911F8012BE3
:2031C000F2B18242FAD145F003055F2011E0FF28F1D90AF1FF31884503D345F00305D046FE
:2031E00062E704EB0801050A81F8205008F10108154604EB080208F1010882F8200053E76A
:20320000A0F1410292B2192A02D847F00207F0E7A0F1610292B2192A9EBF203847F00107F3
:2032200080B2E6E70F2A5AD194F82B20570645D458064BD503F0BF05236996F80DA0E3629D
:20324000737B534544D1F27EB37E53EA02233FD13778DBF80C30039307F03F077B1E0D2762
:203260005F43544B012213F8011B701816F80180407848EA00286AB3FF2F079328D840462F
:2032800000F0E0FB039B0690791C33F81700059100F0D8FB069A82421AD10599079B4246E8
:2032A0000F4645498B42DED13378590604D51AB1039B33F817305BB9013DEDB22046FFF7A4
:2032C00081FC074600283FF43CAF26E0AB42B7D0FF25F3E74FF6FF718845E2D0F8E775B925
:2032E00006F10B023146EB0143EA550511F8013B53FA85F58A42EDB2F5D1AA451CD094F83C
:203300002B7017F001077FF433AF02990B223046FFF7DCFA00287FF42BAF94F82B306FB128
:20332000042F03D113F0040F08BF0527384609B0BDE8F08F0427F0E70027EEE75A07F5D4FA
:20334000A379DB062FD5019B03F130012369C3F308031944019B1878FFF75DFBA0602368FC
:20336000D3F80CB0002619F8010B00283FF49EAE40F2B51100F052FB98B11F287FF696AE5E
:203380002F283FF44FAE5C283FF44CAE7F283FF642AE0A4A12F8013B002B3FF43CAE98426D
:2033A000F8D10627C2E70527C0E700BFA46A0008AD6F0008446B0008516B0008A46F00080C
:2033C0001FB5CDE9001003A814460391FFF7F4FA002815DB0B4B53F820200AB10021117080
:2033E000019A0AB100211170019A43F8202024B101A96846FFF720FC0446204604B010BD4F
:203400000B24FAE7C0190020F0B591B017460191064600283AD0002302A901A88DF8123012
:20342000FFF70AFC044620BB029B0199039303A8FFF7D4FD0446E0B99DF93730002B21DB25
:203440009DF8124014F010041ED1029D0A992878FFF7E1FAB06001F11C00FFF719FA35600F
:20346000F060EB88B38007F0010232747474F46174619DF81230B3710CB1002333602046D0
:2034800011B0F0BD0624F4E70424F2E70924F6E72DE9F04F994687B000238846C9F8003061
:2034A00005A904461646FFF79CFA054608BB657CFDB9237C13F00103029377D0E7686269EB
:2034C000BF1AB74204F1200328BF3746019387B16269C2F30803002B54D1059B5B89013B37
:2034E00013EA522B15D142B9A06801280AD802256574284607B0BDE8F08FA1692068FFF78D
:2035000007FBF2E7431C03D10123029D6374F0E7A061DDF814A0A1695046FFF7E5F9002806
:20352000E5D0B7F5007F0BEB00021DD3BAF80A100BEB572088424FEA572688BFA1EB0B0626
:203540009AF8010033464146FDF746FF0028DBD17602D9F800303344C9F800306369BF1B44
:20356000B0441E446661B2E7E369934209D001999AF8010003920123FDF72EFF039A0028CF
:20358000C2D1E2616269019BC2F30802C2F50076BE421A4428BF3E4608F1FF33911912F85A
:2035A000010B03F8010F8A42F9D1D2E70725A0E7F7B50E4601A90446FFF713FA054640B9B7
:2035C000657C35B9E26863696561964228BF164616B9284603B0F0BD019A57897F0213B3C6
:2035E000013B721EB3FBF7F1B2FBF7F28A421AD37A421340A1696361F61A69BB0026636917
:20360000C3F30803002BE4D0E369B342E1D0019801234078324604F12001FDF7DDFE0546FB
:2036200070B9E661D5E7A168A161E6E73B4463612068FFF76DFA431CA6EB0706014602D147
:2036400001256574C5E7012803D9019B1B69834201D80225F5E7A061BE426369E6D83344F7
:203660006361C6F30803002BC8D00198FFF73CF90028EED000EB5626C1E71FB50446019196
:2036800040B303A901A8FFF7D7FA70B9039B019923602046FFF7A2FCF0B994F92B30002B81
:2036A0000CDBA379DB0603D40520002323600FE0039BE1691878FFF7AEF9A060039BDB887F
:2036C000A3802046FFF758FC0428EDD00028ECD104B010BD0920FBE70428E5D0E5E713B548
:2036E00001A90446FFF77DF900B9206002B010BD2DE9F74F0D4601A90446FFF772F9074661
:2037000020B93DB92046FFF737FC0746384603B0BDE8F08F4FF0FF09D4F800804E4604205E
:20372000A16911B900287DD05CE04046FFF781F9002857D1E3691A78002A00F0BE80D97A35
:20374000E52A01F03F01A17153D02E2A51D021F0200008284DD00F2952D1510647D502F03D
:20376000BF06226993F80D90E2625A7B4A4540D1D97E9A7E42EA012211B2002A39D11A78D1
:20378000D8F80CE0DFF800A222F04002013A0D2042434FF0010C1AF8010B03EB000B185CDC
:2037A0009BF801B040EA0B20BCF1000F23D0FF2A1FD82EF812008446013201310D29EAD149
:2037C0001B785B0607D5BCF1000F04D0FF2A10D800232EF81230013EF6B22046FFF7F2F9BF
:2037E00000289DD000230428A3618ED11AE0B242BBD0FF26F1E74FF6FF7B5845DDD0F8E724
:203800006EB903F10B01F20142EA560613F8012B52FA86F69942F6B2F5D1B14502D04FF0B7
:20382000FF33E3624FF00008D4F800B085F81E80A369002B00F09F80DBF82C30AB60E36967
:20384000EB60E36A013371D100231A462E26E069815C202902F101020CD0052908BFE52147
:20386000092A04D10B2B9EBFE81801334674E818013341740B2AEAD1EA1800215174AA7FD5
:20388000002A64D1002B58D06FF0100605F111020820761BB31812F8011B002950D02E29AE
:2038A0008BB26FD0A3F14101192904D8E169097B084200D020331373ECE7042092E7BAF1BC
:2038C000000F05D100F520539BB2B3F5006F13D340F2B51140EA0A4000F080F8FF28C9F19C
:2038E000FF061BD9012E24D905EB0903020A9A77D87702239944002008F102088246DBF87B
:203900000C3033F808000028D9D14E46BAF1000F18BF00262E440023B37795E758B1002EA9
:20392000F4D005EB090398770123E3E7C246C146E5E70026EAE70646E8E73F23AB77012335
:203940002B4400229A77E3691B7B03B96B74E369DB7A2B74E0691C30FEF79AFF2860E26912
:20396000D17D937D43EA0123EB80E269517E137E43EA0123AB802046FFF724F9042818BF8A
:203980000746C3E6102096E7446B0008F8B506460D4601F11E0729463046FFF7A9FE04469E
:2039A00050B94DB1AB7F3BB1034602463946306BFEF7BAFF0028EED02046F8BD38B50D4650
:2039C000036311460446FFF758FE28B929462046BDE83840FFF7DABF38BD00007F2810B5D1
:2039E00001D880B210BDB0F5803F13D240F2B51399420FD10849002231F8024B844293B2FD
:203A000003D103F18000C0B2ECE70132802AF3D11346F6E70020E5E7526B00087F280DD904
:203A200040F2B513994208D1FF2806D800F10040034B803833F8100070470020704700BF14
:203A4000526B0008B0F5803FF0B523D21F4A02F5F97183B2B0F5805F28BF0A46141D34F88C
:203A6000042C2146AAB1934213D334F8025C2E0AEFB252FA85F5A84222DA082E09D8DFE8AC
:203A800006F0050A10121416181A1C00801A34F810301846F0BD981A00F001001B1A9BB251
:203AA000F7E7103BFBE7203BF9E7303BF7E71A3BF5E70833F3E7503BF1E7A3F5E353EEE72B
:203AC0000434002ECBD101EB4702C7E7526C000870B506460C460025E30704D520222946DF
:203AE0003046FDF711FA0135102D4FEA5404F3D170BD0000124B1B780F2B04BF114B186992
:203B0000114B19780CBFC0084FF0FF3029B90F4A126992FAA2F200EAD2505B78C04300F00F
:203B200007005BB102290BBF064B094B1B691B6908BF1B0ADB4303F004031843704700BFFB
:203B4000EC17002000000240C81B002000080240001C024038B53C483C4D40220B21FDF7D9
:203B6000D3F9402238480C21FDF7CEF94FF6FF712846FFF7ADFF6420FDF784F9344A2B69E3
:203B800012783448C3F30731C3F3033322B3324A1268C2F30B02B2F5E37F03D040F2422444
:203BA000A24217D12D4B02221A700F232B4C0F2202702278022A2CD10123637040F21325A3
:203BC000637823B1264820220221FDF79DF941F607110EE08C07E9D411F00E0F03702FD1BB
:203BE000042119480122FDF78FF940F2112549F61F1181F47F41144881F0FF01FFF768FF6A
:203C000085F47F411748BDE8384081F0FF01FFF75FBFDA0758BF01230C4858BF23704022EE
:203C20000F21FDF771F96420FDF72CF92B691B0443BF0223637041F2112540F21125BFE735
:203C400040F21125C3E700BF000002400008024030000020EC170020002004E0C81B00208D
:203C6000001C02400004024010B5104C0A220B212046FDF7F3F90A220C212046FDF7EEF947
:203C800002220B212046FDF73FF902220C212046FDF73AF9064BD3F8A42042F43042C3F821
:203CA000A4205A6B42F080025A6310BD0000024000380240034BE02283F8432308229A602C
:203CC000704700BF00E100E070477047FDF7DAB8FDF7DCB8034B9B68036048F6A0434B43CE
:203CE0004360704710E000E010B5094B41689C6803681B1B23F07F43994284BFCB1AC0E9B2
:203D000000434FF0000296BF42601046012010BD10E000E0014800F0C9BC00BFE81B002074
:203D200070470000014B00221A707047981F0020704770477047012070470000024B0122D9
:203D40001A700020704700BF981F002010B9024B18787047012070473C00002040B9064B91
:203D60001B78DB0706D4002918BF0421084670470421FBE70321F9E73C00002008B5054B56
:203D8000187828B1044800F074FC003818BF012008BD00BF981F0020E81B002008B5FFF7AD
:203DA000EDFF20B1024B187B003818BF012008BDEC20002010B5074CD4F894305B6C9847F7
:203DC000054A0C232371137843F001031370012010BD00BF981F00203C00002008B560B9D6
:203DE000FFF7CCFF38B1064B187B002818BF0420044B187008BD0120FAE70420FAE700BFB0
:203E0000EC2000203C0000202DE9F0470F46904630BB2BB3154A1278D10723D4520723D4D1
:203E2000DFF84C90DFF84CA05E02484600F021FC18B9BDE8F047FFF7BDBF33464246394672
:203E4000484601F0CFFF514605460446484601F043FC032DE9D0002DEBD12046BDE8F087D7
:203E60000424FAE70324F8E70224F6E73C000020E81B00209C1F00207047704770477047FA
:203E8000704770477047704770470000014B00221A707047981F0020014B00221A7070475A
:203EA000981F00202DE9F0470F46904620BB1BB3134A1278D20721D4DFF84890DFF848A0E7
:203EC0005E02484600F0D5FB18B9BDE8F047FFF771BF334642463946484601F0CDFF5146FF
:203EE00004460546484601F0F7FB032CE9D0002CEBD12846BDE8F0870425FAE70325F8E751
:203F00003C000020E81B00209C1F002007B5054B0093054A054B0648012100F0A7FF03B050
:203F20005DF804FB400000209C1F0020BC000020E81B0020014B1860704700BF3020002049
:203F40000149024801F086B89C1F0020E81B002008B5064800F08DFB28B9054B1879003823
:203F600018BF012008BD0120FCE700BFE81B0020981F002037B50023114D01930446032059
:203F8000FFF7A4FEE268013D1369019314D0019B002BF4DA019B43F001030193019B136101
:203FA000E168074B0A690192013B02D0019AD207F8D40320FFF78AFE002003B030BD00BFF2
:203FC000410D030010B51C46C3783BB900EB82000334D0F8D020A4109C4201D1002010BD8D
:203FE00051F8230010600133F6E710B50332D0F8D00092100023934202D101EB830010BD99
:20400000046841F823400133F5E7012370B5012943804FF04003838032D14FF48163038020
:204020004FF4A073C38002230372C1724FF0A04303F5006245780261C36003F5106200F100
:20404000180400218D421DD803F58062426103F58862C0F8CC20024603F5A06412F8905B23
:2040600000218D4216D803F5805100F1D0040022954214D803F56063C0F80C31002070BDF2
:204080000023D5E744F8042B02F50076A66301312032D7E742F8044B01312034E1E744F80B
:2040A000041B013201F58051E2E770B5027AC3680025012A04462E4627D19D6B427A66F32F
:2040C00010450AB145F480159D63E268D36823F4940323F04003D3602046FFF74BFFE37845
:2040E000012B10D12A2363F30706E3689E60E378012B08D1E268966826F03E0343F02A035B
:2041000063F307069660002070BDDA6842F04002DA60FFF72FFF2D2363F31745637A0BB14A
:2041200045F48015E36814209D63FFF7D1FDDEE7C268936843F00103936000207047C26859
:20414000936823F0010393600020704707B500230193019B43F020030193019B61F38A13FD
:204160000193C368019A1A61C168074B0A690192013B02D0019A9206F8D40320FFF7A6FD20
:20418000002003B05DF804FB410D030007B500230193019B43F010030193C368019A1A617D
:2041A000C168074B0A690192013B02D0019AD206F8D40320FFF78AFD002003B05DF804FB6A
:2041C000410D030008B5C068C368C3F3076222F06002012962F31F6307D143F00053C36069
:2041E0003220FFF775FD002008BD0029F7D143F08043F4E7C368586900F001007047C3689F
:2042000058699B691840704743699868C04300F001007047C26800239361C2684FF0FF3397
:204220005361C2685360C3686FF080425A61C3680A4A9A61C378C268002B916914BF0023EC
:204240001023C0F220330B439361C268936923F0005323F0080393610020704700080080E7
:204260004269136861F3010313607047D0F8CC30186820F02E0363F30700704738B50446C6
:204280000D46FFF721FD2046FFF7F0FFC20408D4012D02BFD4F8CC3040F480501860C304D0
:2042A00005D525B9D4F8CC3065F30C30186038BD43695869704738B50546FFF7D7FFD5F888
:2042C000CC3040F480741C606420FFF701FDD5F8CC306FF308241C601420FFF7F9FC0120B3
:2042E00038BD38B50446FFF7F0FCD4F80C3100211960237A012B18BF01212046FFF7B0FF40
:20430000FFF7D9FF626913686FF382031360E37A012B0AD1E36880225A62E36802F5C0021E
:204320009A62E3686032C3F8002110212046FFF70DFF2046FFF72AFF002304F190024FF0C1
:20434000FF301D462178994208D801212046FFF795FF2046FFF75EFF002038BD1168886036
:2043600052F8041B0133CD60ECE770B500EB81044FF0FF32D4F890309A604A1D00EB42156C
:20438000C37895F81551012B14BF00230423032D11D8DFE805F00263025643F4936545F0B0
:2043A000010565F30F0300EB421595F81261002E3ED043F48073D4F89050EB60456901231C
:2043C000AE6903FA01F13143A961C1688B6900EB421043F000738B6190F8113190F81511F5
:2043E00003F00F02B0F81631C3F30A0343EAC22390F8122102F0010243EAC23390F8132167
:20440000951E6A426A4143EA424301F0030243EA824390F8102102F07F0243EA825303299E
:20442000D4F8902008BF43F000531360002070BD95F8145143F04003002DBCD043F020037C
:20444000B9E743F4D36545F0010565F30F0300EB421595F81251002DABD1ACE743F4087586
:2044600045F0010565F30F0300EB421595F81251002DA0D043F4C07565F30F039BE72DE95A
:20448000F0410A460FB200EB41110446D1F8C031551D002B5FD000EB4510013BB0F8160192
:2044A0000344B3FBF0F39BB2B3F5807F04D90002C1F8C0014FF4807304EB451090F8126162
:2044C00026B1B0F816015843C1F8C001D1F8C00104EB421CC0F3120040EAC3439CF8B80118
:2044E00004EB870700F0030043EA4073D7F8900023F000430361E378012B02BFD7F890307C
:20450000DCF8BC015861D7F890301B68204698465601FFF779FE430103F02003C8F30460BE
:2045200063F07F03034363F31F68D7F89030C3F80080E3782BBB04EB451595F8123103BBA1
:20454000D1F8C031EBB195F81501032811D8DFE800F0041B041B0123AEE7E068C56A0333F3
:20456000ADB2C3F38F039D4203D2836943F0200383612644B1F8C031D6F8BC112046FFF7BF
:2045800021FD0020BDE8F08160690069033380B2C3F38F039842ECD2E068836943F0806303
:2045A000E6E710B500EB8101D1F8902013681C46640355BFC0684069C06A006943F08043D1
:2045C00010F47F0FC0F3074404BF64F3DF731360D1F8902043F000431360002010BD00001D
:2045E00000EB8101074AD1F890301A61D1F890100B68C3F3056262F07F0262F31F630B60EB
:204600000020704700000880002310B51A460446C0F8103104EB8300C0F81821C0F8542120
:20462000E01801330F2B80F89021F3D10823A4F8B6312046FFF7E9FC2046FFF780FD2046F9
:20464000FFF733FD01212046FFF7BCFD2046FFF748FE2046FFF76CFD002010BDD0F8CC30E5
:204660001868C0F34140704708B5FFF724FE002008BDD0F810017047D0F8140170470844A5
:2046800090F89F017047543100EB81004068704738B50A460E32451800EB4213002485F830
:2046A0009F415C60FFF7EBFE38BD00002DE9F04F8BB00446FFF79EFD28B94FF00008404671
:2046C0000BB0BDE8F08F2046FFF799FD00900028F3D010F008089DF8006009D0BF4B1B6823
:2046E00020461B689847E36808225A614FF00108F2066BD5E26800238DF81B30936923F0F6
:2047000010039361E3681A6AC2F303038DF81B309DF81B3004EB830302F00F07D3F8903050
:204720001D68C2F34343022BA84648D147F6F073134244D09DF81B3004EB4313D3F8BC319F
:20474000EBB39DF81B3004EB4313C2F30A19D3F8BC114A462046FFF748FC04EB4713D3F8E2
:20476000BC214A44C3F8BC21D3F8C4214A44C3F8C4219DF81B3004EB4313D3F8C4219DF8EE
:204780001B30543304EB83035A609DF81B3004EB8303D3F890301A6941F6F87313EA1243C1
:2047A0000DD09DF81B3004EB8303C5F30565D3F8903065F07F0565F31F68C3F80080E268DD
:2047C000936943F0100393614FF00108B30612D5E368D4F8C061DB6A07930336C6F38F061D
:2047E000BDF81C50B54204D9D4F8C031002B40F0A3804FF00108009B1B0E0193009B5F01EE
:2048000012D56369D4F8C0611B6907930336C6F38F06BDF81C50B54204D9D4F8C031002B76
:2048200040F0B3804FF00108019B9E0710D52046FFF73EFD002382B204F1900904F5DA7ADE
:204840001E46029222789642C0F0CA8048EA0308019BDD074DD5D4F8CC301D68D3F800A05D
:2048600015F002062AF02E0363F3070AEFB207D05A4B1B6820465B6898474AF0020A012664
:2048800038072BD517F0040FDFF850914AF0080A00F0AB82C5F3074505F00605042D01D098
:2048A000022D11D16269042D13680DD103F0030341F27071022B516006D0217A022940F0DB
:2048C0008B822046FFF7CCFCD9F800302046DB689847E268936943F000539361B906D4F8D3
:2048E000CC3044BF4AF0200A0126C3F800A048EA0608019B9A060AD5384B1B6820469B6809
:204900009847E3684FF000525A614FF00108009B9B027FF5D4AED4F890100B68C3F30562AF
:2049200062F03F0262F31F630B60E3684FF400125A614FF00108C2E6AD00ADB29D4205D98E
:20494000E2689DB2936923F0200393612B46D4F8BC11D4F8C06100222046FFF733FBD4F829
:20496000BC312B44C4F8BC31D4F8C0315B1BC4F8C031D4F8C4312B44C4F8C431E3680336ED
:20498000DB6A0793C6F38F062AE7AD00ADB29D4205D9E2689DB2936923F0806393612B4620
:2049A000D4F8BC11D4F8C06100222046FFF70AFBD4F8BC312B44C4F8BC31D4F8C0315B1BEA
:2049C000C4F8C031D4F8C4312B44C4F8C431636903361B690793C6F38F061AE7A400002013
:2049E000029A3241D50740F19B80D9F800502B68180440F11B81AA68EB682F6802EA030BED
:204A00001BF0040F5B463A465FFA8BF117D00421A960D9F80000C16841F00201C1601BF40F
:204A2000007F46D0D9F80020D36843F00203D360F1B22046FFF7B5FD4FF4007309E111F0F8
:204A4000200002D02021A960E9E7090718D5E968049741F00201E960A1194FF0050C81F861
:204A600090C11021A960082160F30413A9602046F1B203930593FFF794FDDDE90332CEE7A1
:204A80001BF4806FCBD0E96841F00201E9602046F1B2CDE903B7FFF784FD1021A960A119CB
:204AA000082081F890014FF48061DDE90332A960B5E7D9B213F0010346D0E378012B0CD1F4
:204AC000D9F800301A69DAF80C30C2F312029A1A06F1540304EB83035A60A1194FF001034D
:204AE00081F8903106F14603002244F8232001237A03AB60C7F3074318D4D9F80020D368D3
:204B000043F00203D360F1B22046FFF74AFD1023AB609AF8143083F001038AF8143001236F
:204B2000013609F104090AF1200A8BE603F00C030C2BF4D1D9F8003047F000521A604FF060
:204B4000010381F89F31EAE7880733D5D9F80010CA6863F34102A319CA6093F89021012AA7
:204B6000D1B203D183F89F11022372E093F89021052A03D1042283F89F21F5E793F8902184
:204B8000062A03D093F89021082A06D106F14602002144F822100322EDE7C7F3074707F007
:204BA0000C070C2FE0D19AF8143083F001038AF81430D9E708060FD5D9F80020D36843F0D2
:204BC0000203D360A319062283F89021F1B22046FFF7E7FC80233CE0CB06A0D5C7F3074B9A
:204BE0000BF00C030C2B0DD1D9F80010CB6843F00203CB60E3782BB9F1B220460392FFF74C
:204C0000D0FC039AA319032183F890111BF0040F4FF01003AB6082D1C7F30567D9F800303A
:204C200067F07F0767F31F621A6078E7A968EB68286819404F07CBB208D50423AB60D9F8E3
:204C40000020D36843F00203D36068E79A0602D52023AB6063E7C1F3072212F0020704D074
:204C6000EB6843F00203EB60E2E613F0010F13D006F14603F1B244F82370EB6843F0020363
:204C8000EB602046FFF78DFC0123AB604FF00102A31983F8902142E713F008070ED0082347
:204CA000AB60D9F80020D36843F00203D360F1B22046FFF776FCA3190522EAE713F0100F0B
:204CC00012D006F1460344F82370EB6843F00203EB60E3781BB9F1B22046FFF762FC10234E
:204CE000AB600322A319D4E70F060CD5EB6843F00203EB60F1B22046FFF753FCA31906220F
:204D000083F8902166E7590613D506F14603002244F82320EB6843F00203EB60E3781BB9ED
:204D2000F1B22046FFF73DFC4023AB600422A319AFE712F0040210D0EB6843F00203EB6097
:204D4000F1B22046FFF72DFC1023AB60A319082283F890214FF480637BE79F077FF5DFAEAC
:204D6000EB68A71962F34103EB6097F89031012BDAB20FD1C0F3074000F00C00082887F8AF
:204D80009F217FF4F1AE9AF8153083F001038AF81530E9E697F89031032B03D1022387F867
:204DA0009F31E1E697F89031042B08D19AF80030012BF3D1F1B22046FFF712FCEEE797F8E1
:204DC0009031052B01D10423E9E797F89031062B7FF4CAAE0323E2E762694BF68031012BD5
:204DE00051603FF471AD01216BE5D9F8003020461B69984772E500BF0123C0F81031002022
:204E000070470123C0F814310020704703460020C3F8140170470020704738B504460021C4
:204E2000FEF752FFE36800259D61E3684FF0FF325A612046FFF783F9C4F81051284638BDF0
:204E400038B54FF080730B6001230B7740230C468B714FF480730B840546097900F02CFBC8
:204E60006179284600F028FB002038BD2DE9F041DDF8188014461F4605460E46FEF7F4FEC9
:204E80000020FEF722FF21462846FFF7D9FF3146C4E923782846FFF7B7FBD4F890301B6855
:204EA00098472846BDE8F041FEF704BF0B1F012B10B5044606D8D0F890305B6C98470C2377
:204EC000237010BD0629FCD10C230370D0F89030BDE810401B68184738B500238B740B7FDC
:204EE000013B0C460A2B21D8DFE803F0060D30374D5A676E8797A4004A79143100F013FB7E
:204F00000223237712E04979FFF7B9FB012816D1628B94F914305AB1002BB4BF03230523AF
:204F2000237741F288314A48FEF7D4FE002063E0002BB4BF0923072323773221F3E7032849
:204F400001BF0B2323770523A374EFE70B798A89896800F01FFB0423D3E70979FFF78FFB3F
:204F6000012806D1092323773948FEF7BDFE40B9DCE7042803D1637823700C23C1E703280E
:204F8000F2D10B23BDE74B7900EB4313012283F8C9214B798A89896800F0DBFA0623B0E7A2
:204FA0004979FFF76CFB012801D10723A9E70428E1D002283AD10523A3E700220B7911465C
:204FC00000F0E8FA08239CE70979FFF758FB0128054603D1637823700D2392E70328D0D05C
:204FE0001B48FEF781FE0028CBD1042D9ED1637823700C232377032038BD4B7900EB431322
:2050000093F8C92182F0010283F8C92100224B79114600F09EFA0A2373E74979FFF72FFB13
:205020000128D7D0022801D109236AE703287FF47DAFA6E78B7B0133DBB2022B8B7301D805
:2050400001235EE708238B744B780B700220D3E73420002070B594B0022305460C468DF87F
:205060000F30FFF706FBA0B92378002B36D12846FFF7FFFA58B1012323706420FEF728FE18
:205080002846FFF7F1FAD4F89030DB68984714B070BD2846FFF7F0FA0028E5D023780C2B25
:2050A000F5D801A252F823F06F5000081F51000833510008E55000088F500008A951000832
:2050C0008F530008A9530008C55300086B5300088F5000088F500008CF530008032B01D005
:2050E00003232370D4F890301B69984721462846FFF7A6FED4F890305B689847D4F88C30E3
:2051000004F120015B6828469847284600F0E2F90023237001212846FFF776FAB7E7D5F819
:205120001431012BB3D1022323703220FEF7D0FDADE7D4F890309B6898470021284600F02D
:20514000A1F980216071284600F09CF920712846FFF78AFA0646002899D1D4F89030DB682A
:2051600098472846FFF77AFA05232370C0B2D4F8903084F821009B699847A37994F8202057
:205180002179CDE90063284694F8213000F032F9A37994F820206179CDE90063284694F821
:2051A000213000F027F972E7A378092B3FF66FAFDFE803F00525365B6A7E97B0C9D4082228
:2051C0002146284600F0C8FE064600287FF45FAF94F829306179A3710122CDE90003A2708E
:2051E00003460246284600F02EF9A3792179CDE9006332463346284600F025F947E71222FB
:205200002146284600F0A8FE00287FF440AFD4F8903004F12200DB6998470223A37036E77E
:2052200001222146284600F00DFF064600287FF42EAF0220FEF74CFD012384F82030D4F89A
:2052400090301B6A9847032394F820202179A370CDE900663346284600F0F5F8CDE900668F
:2052600094F8202061793346C5E709222146284600F0DEFF00287FF40AAFE38EB3F5806F3A
:205280003FF605AF0423C9E7E28E2146284600F0CFFF00287FF4FBAED4F8903004F1500234
:2052A0005B6A04F13E0104F1340098470523B5E794F8302082B140230093214604AB2846A0
:2052C00000F092FE00287FF4E2AED4F890309B6A04A898470623A1E7D4F8903044489B6A39
:2052E000F7E794F8312082B140230093214604AB284600F079FE00287FF4C9AED4F8903041
:20530000DB6A04A89847072388E7D4F890303848DB6AF7E794F8322082B140230093214687
:2053200004AB284600F060FE00287FF4B0AED4F890301B6B04A8984708236FE7D4F890305F
:205340002B481B6BF7E794F839202146284600F084FE00287FF49BAE09235FE7D4F8903068
:205360005B6B98470923237091E6D4F890309B6B984701287FF48BAED4F88C3021461B689A
:205380002846984700287FF482AE0623EBE7D4F88C3021469B68284698478DF80F009DF892
:2053A0000F304BB90723DEE7D4F88C302146DB68284698478DF80F009DF80F102046FFF798
:2053C00075FD64E621462846FFF786FD5FE621462846FFF735FDD4F890305B689847D4F887
:2053E0008C3004F120015B68284698474FE600BFB46F000870B501F5E47430F814504C1D44
:2054000000EB441405F07F0684F810219DF8102084F81521BDF81420A4F81621C5F3C01562
:2054200000EB411284F81251002584F8116184F81331A2F8C85113B9012384F81431FEF723
:2054400094FF002070BD70B54C1DBDF814501AB100EB441686F8102100EB4412B2F81661A4
:20546000AE4202D00DB1A2F8165100EB441494F813219A4202D00BB184F81331FEF775FF15
:20548000002070BD30B5002300F5647434F9025B002DDAB20ADB03F5E4736FEA41416FEA3F
:2054A000514120F8131092B2D0B230BD0133082BECD14FF6FF72F7E7072998BF00EB410100
:2054C0004FF000009EBFB1F89033C3F30E03A1F89033704703460020C3E9E500C3F89C0396
:2054E0007047C878012810B505D002284FF001030BD018460FE00C784C7008248B810C7069
:205500008A6008770223CB7005E00A7F0D2A03D10020CB70087710BD0B2AF4D00C2AE8D1BA
:20552000CB700320F7E738B5541D00EB4414002584F8125100EB42140325C4F8BC1108216F
:20554000C4F8C01184F8B8511146FFF7A1F8C0B238BD38B55C1D00EB4414002584F812513F
:2055600000EB43155C01C5F8BC11C5F8C0215AB9012285F8C92102220444194684F8B821A6
:20558000FFF786F8002038BD95F8C921002A18BF0222F1E770B500EB4315012685F8B261EF
:2055A0000226C5F8BC1185F8B861C5F8C0211946FFF76EF8002070BD70B55D1D00EB451519
:2055C000002685F8126100EB4315C5F8C02195F8C921C5F8BC11B24218BF022285F8B8218E
:2055E0001946FFF755F8304670BD70B500EB43150126C5F8C02195F8C821C5F8BC11002A0F
:2056000018BF022285F8B26185F8B8211946FFF73FF8002070BD000008B5FFF72AF8084BA8
:2056200040B1084A0849C3E9001200225A73012283F8232000221A63044B1A7008BD00BF4C
:20564000402000205040302055534243EA20002008B552B1012A0ED00120094A136B0133A4
:20566000052B136328BF042008BD064A1378D27800F0FEFCF1E7034A53789278F8E700BF0D
:2056800040200020A020002038B50546FEF7F1FF0E4C18B9012084F82F0038BD0C4B2846DC
:2056A0001978FEF7F0FF0D280ED1626B094B9A420AD1A26B63689A42ECD194F84000002824
:2056C000E9D00228E6D1E6E70220E4E740200020A0200020555342532DE9F04105460E46F3
:2056E000FEF7C7FFE0B1A04C94F82430013B072B16D8DFE813F00800170042008A00D500AC
:20570000F80020012C01994B97495B781F222846FFF752FF4FF48173A384002384F8443045
:20572000BDE8F081914B28465978FEF7A8FF012816D100232363022384F82530A3686BB1C6
:20574000A364A36AC4E9133394F90C30002B03DA032384F82430E3E70423FAE70523F8E7A2
:20576000022802D194F82530F3E7042840F08C80012384F854300823EBE77C4E2846317807
:20578000FEF77DFF012803D094F82530032B24D0032341F28831764884F825300027276347
:2057A000FEF798FAB288A16C8A420CD23378E16C2846FFF71AFFB188A26CE36C521A0B44AB
:2057C000A264E364ACE70029C8D08AB23378E16C2846FFF70AFFA764A2E7042806D10023CD
:2057E00084F8543040F20753A38499E7032840F09A8094F844300133DBB2022B84F8443023
:20580000A6D9022384F82F308AE7584E28467178FEF735FF012821D1F288A16C0027042382
:205820008A42276384F825300FD27378E16C2846FFF7C2FEE36CF28823651344E364A36C06
:2058400084F844709B1AA3646AE7002986D08AB27378E16C2846FFF7AFFEBCE702280BD15E
:20586000E16C206DF2887378814218BF891A2846BDE8F041FFF7A0BE042805D1012384F872
:2058800054304FF4A163AFE703287FF449AF94F844300133DBB2022B84F84430B1D861E762
:2058A000052384F82530334BA3623F22A285194603F10C02002602F801699A42FBD12B4BDB
:2058C00084F834601B7828463F22FFF78EFE062384F8243084F844602548BDE8F04141F245
:2058E0008831FEF7F7B9214B28461978FEF7C7FE01280FD100232363052384F82530314603
:2059000094F8223084F820302846FFF7BDFE84F82F0005E7042804D1002384F854300723D9
:2059200017E70328B3D01248FEF7DEF900283FF4F7AE012366E7002231462846FFF788FEA1
:2059400068B994F85430022B7FF40CAF13E7012231462846FFF77CFE00283FF403AF042810
:205960007FF4DEAE4DE700BF40200020A02000209820002074200020014B0020187070479E
:205980006020002038B50C4C6178054639B1FEF708FE61782846FFF78FFD002363702178C1
:2059A00041B12846FEF7FDFD21782846FFF784FD0023237038BD00BFA0200020F7B591F89B
:2059C0004330082B06460D4641D191F84530502B3DD191F85220B1F8543091F952101E4C6B
:2059E000002995F95A10AEBFA270E270A38095F85A20A8BFE3800029A8BFA270B5F85C30E6
:205A0000A178BABFE270A380E380FFF73BFDE17860703046FFF736FD0227E38895F82020C5
:205A2000617820700193009795F821303046FFF7E1FCA38895F820202178CDE9007330467B
:205A400095F82130FFF7D6FC002003B0F0BDD5F890301B6C9847F7E7A0200020012811D164
:205A60000A4A92F84A300133DBB2092B82F84A3004D8074B06221A70D8707047044B0A228B
:205A80001A7070470228F9D0704700BFA020002060200020F8B504460E46FEF7EAFD08B9F4
:205AA00001241EE0484D2B780A2BF9D801A252F823F000BFE75A0008A15A0008F35A000825
:205AC0005F5B0008755B0008835B0008B75B0008915B00089B5B0008435B0008E15A000851
:205AE00004242046F8BD2046FFF796FD02232B70D6E7364F4FF6A1624FF48033C6E905235D
:205B00002046012307F108023146FFF7EAFC044688B93B7A87F8483053B197F84B303BB96D
:205B2000012387F84B30D6F890301B6C9847D8E703232B70D5E70328D3D140F209332B802F
:205B4000CFE7204673790022314600F091FA04460028C6D11D4B83F848006B78E9E72046DC
:205B600000F036F8044660BB04232B70174B83F84A40B6E7204600F061F8044608BB0523F8
:205B8000F3E7204600F0A4F80446D0B90823ECE731462046FFF7A0FD82E7D6F89030DB6BBB
:205BA000984710F0FF0001D10823A0E701287FF477AF062495E7204600F0CCF8044600288F
:205BC000CBD0FFF74BFF6BE760200020A020002070B5FEF74EFD28B1154CE678012E03D019
:205BE000022E19D0032016E0124D134BA36000213F23102205F10F00A381A9602973FBF73E
:205C00006DFB0623EB8107232370032040F20323E0736380267170BDE07B10B90123E370BA
:205C2000F9E7012801D1E070F5E70228DAD1F5E760200020402000207420002070B5FEF7BE
:205C400018FD28B11E4CE678012E03D0022E1BD0032018E01B4D0823AB6080232B731A4B12
:205C600010221B68A360002105F10F00FBF736FB42F20A53EB810723237003204FF401738F
:205C8000E0736380267170BDE07B88B90E4B1A680E4B1178D9705178997091785970D1787B
:205CA000197091795972D2791A720123E370EAE7012801D1E070E6E70228C9D1F5E700BFF0
:205CC000602000204020002030200020EC200020F8B5FEF7CEFC28B11A4CE678012E03D0FD
:205CE000022E1DD003201AE0174D80232B73174B3F271B68A3601022002105F10F00AF6010
:205D0000FBF7ECFA41F60623EB8107232370032040F205236F74EF74E07363802671F8BDDD
:205D2000E07B40B9094B0A4A1B689B78DB0913730123E370F3E7012801D1E070EFE70228CB
:205D4000D0D1F5E7602000204020002030200020EC200020F8B5FEF78CFC28B11D4CE67840
:205D6000012E03D0022E1ED003201BE01A4D80232B731A4B1B68A3603F27A37863701022CC
:205D8000002105F10F00AF60FBF7A8FA40F20633EB8107232370032040F20623EF74E07372
:205DA00063802671F8BDE07B68B90C4B1A680C4B1178D9715178997191785971D2781A71BA
:205DC0000123E370EEE7012801D1E070EAE70228CAD1F5E76020002040200020302000202A
:205DE000EC2000202DE9F843894617461E46FEF740FC40B11E4C94F80380B8F1010F04D06E
:205E0000B8F1020F27D003202CE01A4DC4F808900021102205F10F00AE602973FBF75EFA9B
:205E200042F60A23EB81C7F307636B74C7F30743AB74C7F30723EB74730AEB75C6F3474605
:205E40000723032023702F75AE7584F80480E0730223E37006E0E07B08B90123F9E70128A1
:205E600002D1E070BDE8F8830228CCD1F5E700BF60200020402000202DE9F84F264E4FF04D
:205E800003098B4690461F4686F80090FEF7F1FB40B1224C94F803A0BAF1010F05D0BAF132
:205EA000020F2CD03078BDE8F88F1D4DC4F808B080231022002105F10F00AF602B73FBF789
:205EC0000DFA42F60A03EB81C8F307636B74C8F30743AB74C8F30723EB747B0AEB7507238F
:205EE000C7F347472370022385F81480AF7584F804A084F80F90E37086F80090D2E7E37BBA
:205F000013B90122E27002E0012B02D1E3703370C8E7022BC6D1F4E7CC000020602000208F
:205F20004020002030B41D4662F07F02CD8205F47F45B5F5407F0A754FF00602BDF80C309B
:205F40004A7540F2094218BF00220A834B83029A30BCFFF7C6BA000073B5224E01923368ED
:205F6000009315464FF4807300220C46FFF7DAFF002834D133681A7884F822205A7884F854
:205F80002320D9789A7802EB0122A2841A7984F826205A7984F827209A7984F82820DA7910
:205FA00084F82920082D1AD9597A1A7A02EB01226285D97A9A7A02EB0122A285597B1A7B8F
:205FC00002EB0122E2859A7B84F83020DA7B84F831201A7C84F832205B7C84F8333002B07B
:205FE00070BD00BF3020002037B5154D1C464FF4007301932B68009342F440730022FFF724
:2060000091FFA8B929684B78032B0FD111F8022BBDF818305208013A013B9BB292B29A42BC
:2060200028BF1A460346934204D11C440023237003B030BD11F81350E5540133F3E700BFFE
:20604000302000204FF4A06310B48B820023CA8210BC8B611A46FFF744BA4FF4106310B4C4
:206060008B820023CA8210BC8B611A46FFF739BA5B0110B403444FF481744C6112F0800FC6
:206080004FF000040A834C8314BF83F8C84183F8C941002310BC1A46FFF723BA2DE9F04F0E
:2060A00093461A7802705A7842708BB09A780891D97802EB012242801A79027159794171EC
:2060C00099798171D979C171197A0172BDF85010092940F2A880022A35D8544A002792F809
:2060E00000C052880092069709214FF0040A42888A4206D84D4B0020588018700BB0BDE874
:20610000F08F1A78134411445A78042A89B2EED193F80380B8F1020FE9D81A7801925A7947
:206120001E7902929A790392DA790492032E1A7A05920AD9069B13B13C4B83F800C017B175
:206140003A4B009A5A800320D8E793F90220089C0792154605EB450502EBC202224493F842
:2061600002E0EC0009940025B542C0DA93F800904B44494493F80190B9F1050F89B2F3D1EE
:20618000079CA44534D0019C1470029C5471039C9471049CD471059C1472012482F801A0FB
:2061A00082F802E082F803801671F4460694099C93F8009004EBC5070BEB07040BF8079015
:2061C0005F7867709F78A770DF78E77093F805901F7907EB0927A7809F79A7715F791C7997
:2061E00004EB0724A4B2013500946DB20127BBE75C7993F8049009EB0429009C4C453FF704
:2062000076AF019C1470029C5471039C9471049CD471059C82F801A082F802E082F8038037
:2062200016711472C3E7002068E700BFFC20002073B50C4E01923368009315464FF40073E9
:2062400000220C46FFF76EFE48B93368009504F1500204F13E0104F13400FFF71FFF02B0CD
:2062600070BD00BF3020002031323A35363A303200417567202034203230323200332E3313
:20628000350000002110422063308440A550C660E770088129914AA16BB18CC1ADD1CEE1A9
:2062A000EFF13112100273325222B5529442F772D662399318837BB35AA3BDD39CC3FFF39F
:2062C000DEE36224433420040114E664C774A44485546AA54BB528850995EEE5CFF5ACC51F
:2062E0008DD55336722611163006D776F6669556B4465BB77AA719973887DFF7FEE79DD75F
:20630000BCC7C448E5588668A7784008611802282338CCC9EDD98EE9AFF9488969990AA95E
:206320002BB9F55AD44AB77A966A711A500A333A122AFDDBDCCBBFFB9EEB799B588B3BBB9E
:206340001AABA66C877CE44CC55C222C033C600C411CAEED8FFDECCDCDDD2AAD0BBD688D9E
:20636000499D977EB66ED55EF44E133E322E511E700E9FFFBEEFDDDFFCCF1BBF3AAF599F5E
:20638000788F8891A981CAB1EBA10CD12DC14EF16FE18010A100C230E320045025404670BD
:2063A0006760B9839893FBA3DAB33DC31CD37FE35EF3B1029012F322D232354214527762BE
:2063C0005672EAB5CBA5A89589856EF54FE52CD50DC5E234C324A0148104667447642454FE
:2063E0000544DBA7FAB79987B8975FE77EF71DC73CD7D326F2369106B0165766767615467E
:2064000034564CD96DC90EF92FE9C899E9898AB9ABA94458654806782768C018E10882383D
:20642000A3287DCB5CDB3FEB1EFBF98BD89BBBAB9ABB754A545A376A167AF10AD01AB32ABD
:20644000923A2EFD0FED6CDD4DCDAABD8BADE89DC98D267C076C645C454CA23C832CE01C7D
:20646000C10C1FEF3EFF5DCF7CDF9BAFBABFD98FF89F176E367E554E745E932EB23ED10E7D
:20648000F01E44534B41000000000246FF000000000000000000000000000000000202017F
:2064A0003C01C800070A000000B80B000000000000010050002C01D007010100000C8F44CD
:2064C000534B41000000000001FF00FFFFFF00FF0009121B242D363F48415A536C657E77E9
:2064E00019100B023D342F265158434A757C676E323B2029161F040D7A7368615E574C45AC
:206500002B2239300F061D14636A7178474E555C646D767F4049525B2C253E3708011A138B
:206520007D746F6659504B42353C272E1118030A565F444D727B60691E170C053A3328216B
:206540004F465D546B627970070E151C232A31384148535A656C777E09001B122D243F364B
:2065600058514A437C756E671019020B343D262F737A6168575E454C3B3229201F160D042B
:206580006A6378714E475C55222B3039060F141D252C373E0108131A6D647F7649405B520B
:2065A0003C352E2718110A03747D666F5059424B171E050C333A21285F564D447B726960EB
:2065C0000E071C152A233831464F545D626B707910200021007F22DA1221048300030C0F1F
:2065E00030333C3FC0C3CCCFF0F3FCFF00401454A0C0A1C88000C0D580D300408D14DA022B
:20660000D9F1DB20A42E00000000000000000000000000000000007C000000000006000061
:2066200000001C001C0000000000000020F82020F820010701010701007008FC08C800025A
:20664000020702011824984020100201000609060080586498400003040403040000000E9E
:206660000000000000000000000000F00C0200000001060800020CF0000000080601000000
:20668000004050A05040000001000100004040F0404000000001000000000000000000083F
:2066A0000A06000000404040404000000000000000000000000000000606000000008040BE
:2066C000300C00060100000000F8844424F8000304040403001008FC00000000000700006E
:2066E00000080484443800060504040400044464548C00020404040300C0B08CC08000009E
:2067000000000700007C4444448400020404040300E0382424C0000304040403000404E477
:206720001C0400000700000000B8444444B80003040404030078848484780004040201005D
:2067400000003030000000000303000000003030000000080A060000000040A0100000006B
:2067600000000100002020202020000101010101000010A040000000010000000004C44476
:20678000443800000600000000E010C808F000010204050100F0888488F000070000000738
:2067A00000FC444444B800070404040300F00804040800030404040200FC040408F0000727
:2067C0000404020100FC4444440400070404040400FC4444440400070000000000F00804FC
:2067E00044C800030404040700FC404040FC000700000007000004FC04000000040704009E
:20680000000004FC040000040403000000FC8040B00C00070000010600FC000000000007E0
:206820000404040400FC30C030FC00070001000700FC304080FC00070000010700F804042A
:2068400004F800030404040300FC8484847800070000000000F8040404F8000304060C0B03
:2068600000FC4444C438000700000106003844444488000204040403000404FC04040000E1
:206880000007000000FC000000FC000304040403003CC000C03C00000106010000FC00F0FB
:2068A00000FC000007000700000CB040B00C000601000106001C6080601C00000007000089
:2068C00000048444340C000605040404000000FE02020000000F0808000C30408000000078
:2068E00000000106000202FE00000008080F0000001008FC0810000000070000000000003D
:2069000000000004040404040000020408000000000000000000909090E0000304040407AF
